:1000000009C1000033C1000031C100002FC1000050
:100010002DC100002BC1000029C1000027C1000034
:1000200025C1000023C1000021C100001FC1000044
:100030001DC100001BC1000019C1000017C1000054
:100040000C94391213C1000011C100000FC100004F
:100050000DC100000BC1000009C1000007C1000074
:1000600005C100000C9466170C948717FFC00000B0
:10007000FDC00000FBC00000F9C000000C943C1162
:10008000F5C00000F3C00000F1C00000EFC00000A8
:10009000EDC00000EBC00000E9C00000E7C00000B8
:1000A000E5C00000E3C00000E1C00000DFC00000C8
:1000B000DDC00000DBC00000D9C00000D7C00000D8
:1000C000D5C00000D3C00000D1C00000CFC00000E8
:1000D000CDC00000CBC00000C9C00000C7C00000F8
:1000E000C5C00000780B620B500B410B2708270896
:1000F0002708270827082708270827082708A10B0B
:10010000270827088E0BB30BAA0A170B2708270806
:100110002708E70AD30AC00A27082708270827085C
:100120002708270827082708340B2E0B270827083D
:1001300027082708270827082708270827083A0B31
:100140009F0A27082708990A270827082708270849
:1001500027086F0A2708610AA908F2094F0935091B
:1001600006095808C109B30958085808AC0CA40975
:10017000580858085808580858089709580858083F
:10018000580858085808580858085808580858086F
:100190008709FB09580858087709E108D508580865
:1001A0005808C208580858085808580858085808E5
:1001B0000B0A58088B08A908480A4F09350906098F
:1001C0002708C109B309270827082708A409270811
:1001D0002708270827082708970927082708270836
:1001E0002708270827082708270827082708870936
:1001F000170A270827087709E108D50827082708DC
:10020000C2082708270827082708270827083B0AC5
:1002100027088B0811241FBECFEFD1E2DEBFCDBF70
:1002200000E00CBF0FB6F894A8958091600088613B
:1002300080936000109260000FBE12E0A0E0B2E078
:10024000E8E2F8E300E00BBF02C007900D92A2388D
:10025000B107D9F725E0A2E8B2E001C01D92AF35A1
:10026000B207E1F70E94D70C0C94121CC9CE5F9A1A
:100270001092B70208954FB7F8941092B902F0980F
:100280008091B10280FD03C081E08093B102209192
:10029000F5023091F6028091F1029091F2028217FC
:1002A000930758F08091FD029091FE020196909381
:1002B000F2028093F1024FBF08958091FD02909168
:1002C000FE022817390790F73093FE022093FD02B3
:1002D000C90101969093F2028093F1024FBF0895F5
:1002E0004FB7F8941092BA02F1988091B20280FD53
:1002F00003C081E08093B2022091F7023091F802AE
:100300008091F3029091F4028217930758F0809144
:10031000FF029091000301969093F4028093F30200
:100320004FBF08958091FF0290910003281739076D
:1003300090F7309300032093FF02C9010196909338
:10034000F4028093F3024FBF0895883018F4880FA9
:10035000880F880F613061F108F1623069F0633015
:10036000B1F48830D9F1803209F04AC08AE2809332
:100370000002809301020895883059F1803299F586
:100380008AE28093000288E280930102089587E068
:100390008093000281E0809301020895883099F0F3
:1003A0008032A9F782E080930002809301020895D1
:1003B000883049F08032F1F485E08093000282E0D9
:1003C00080930102089583E080930002109201025D
:1003D00008956093000210920102089510920002A5
:1003E00010920102089587E08093000285E08093D7
:1003F0000102089584E08093000260930102089551
:1004000080E18093000288E28093010208954F9278
:100410005F926F927F928F929F92AF92BF92CF9294
:10042000DF92EF92FF92CF93DF93C82FD0E0FE01CF
:10043000EE0FFF1FEE0FFF1FEF52FD4F80809180E8
:10044000A280B38060E072E18AE790E0A5019401A8
:100450000E94AB1B69017A010E94661A2B013C01C4
:10046000C501B4010E94661A9B01AC01C301B2012F
:100470000E94D21920E030E040E052E40E94341B98
:1004800020E030E040E05FE30E945B190E943A1AEE
:100490004B015C01E114F10451F480E8C816D10469
:1004A000E104F10408F066C020E830E002C02FEF5C
:1004B0003FEFCE01002496958795079496958795F2
:1004C0000794982F802DFC01E452FB4F845E9A4FD5
:1004D00021933193E817F907D9F781149104A10406
:1004E000B104C9F1C501B4010E94661A2B013C0197
:1004F000C12CD12C7601CC0FDD1FC295D295D07FB7
:10050000DC27C07FDC27C701B6010E94661A20E005
:1005100030E040E052E40E94341BA30192010E94AB
:10052000D2190E94BF190E943A1AFE01E60FF11D6E
:10053000EE0FFF1FE452FB4F808191810196918362
:1005400080838FEFC81AD80AE80AF80A8C149D0431
:10055000AE04BF04C1F6DF91CF91FF90EF90DF9022
:10056000CF90BF90AF909F908F907F906F905F9053
:100570004F90089596019DCF0F931F93CF9308E05E
:1005800010E0C0E0C8010E9444159C2F982788E025
:1005900027E0990F08F492278A95D9F7C92F0F5FA2
:1005A0001F4F043E81E0180769F7911101C0C1E0B7
:1005B0008C2FCF911F910F910895CF9387E090E0FA
:1005C0000E944415C82FD8DF91E0C81390E0892F0E
:1005D000CF9108951F93CF93DF9300D01F92CDB793
:1005E000DEB7182F40E050E063E0CE0101960E9494
:1005F0006A1543E050E068E072E0CE0101960E9487
:10060000EE1B892B49F080E00F900F900F900F9018
:10061000DF91CF911F91089583E090E00E945415DF
:10062000663373408105910571F7112391F1809133
:100630005C05843040F7882339F18091DB048132F6
:1006400010F78091ED029091EE02C2978F3794409F
:10065000D0F68091EF029091F002C2978F379440CC
:1006600090F68091F9029091FA02892B61F28091C3
:10067000FB029091FC02892B31F29091E3029150A0
:1006800081E0933108F2BFCF8091DB048131C8F261
:10069000BACF93DF8111CBCFB6CF89E090E00E9433
:1006A000441591E0811101C090E09093D9048AE053
:1006B00090E00E94441591E0811101C090E0909378
:1006C000DA048BE090E00E94441580935C0588E09A
:1006D00090E00E9444158093DB048BE290E00E943E
:1006E000441591E0811190E0909386028FE290E0B2
:1006F0000E94441591E0811101C090E090938A021C
:1007000081E09091DB04983008F080E080938802CB
:100710008AE290E00E94441591E0811190E090936C
:1007200087029091DB04983010F0811106C110927D
:10073000890241E066E373E080E090E00E94AB173D
:1007400060915C058091DB0400DE80E043DF811175
:10075000FBC081E080938E0280938D02279A809166
:100760008E02813009F435C12F98259A80918E022E
:10077000813009F435C12D9853985B9A80910A0114
:100780008E7F80930A0180910B01816080930B0121
:10079000989AA09A23982B9A2098289A22982A9A75
:1007A0002198299A3A9A4298389A4098579A5F9A8B
:1007B000829A8A9A809A8898869A8E98819A89983D
:1007C000879A8F98E0918802F0E0E050FE4F808198
:1007D000282F217080FF71C0139A982F987083FD85
:1007E00071C00B9A222309F470C02091020122608B
:1007F00020930201911171C0909101019260909338
:100800000101282F227081FF71C0159A982F9071D5
:1008100084FD71C00D9A222309F470C02091020159
:10082000216020930201911171C0909101019160AA
:1008300090930101282F247082FF71C0179A982F7E
:10084000907285FD71C00F9A222309F470C0119A2D
:10085000911171C0099A8FE99FE00197F1F700C0EB
:100860000000429A409A80918A0281116BC03C9AA2
:10087000449880910101806480930101809102017C
:100880008F7B809302011092B6001092B3001092F9
:10089000B0001092B1008091B00081688093B000E8
:1008A0008091B10084608093B1000E94B11660E82D
:1008B00075E280E090E00C9418161398982F9870C9
:1008C00083FF8FCF0B98211190CF209102012D7FB4
:1008D00020930201992309F48FCF909101019D7F0C
:1008E00090930101282F227081FD8FCF1598982FAA
:1008F000907184FF8FCF0D98211190CF209102012C
:100900002E7F20930201992309F48FCF909101014A
:100910009E7F90930101282F247082FD8FCF17981E
:10092000982F907285FF8FCF0F98211190CF11983B
:10093000992309F48FCF09988ECF81E080938902A3
:1009400048E0F8CE3C9894CF80E061DD81E05FDD47
:100950004091F9025091FA02A1E0B3E0E1ECF3E03A
:1009600020E030E00CC012968C91129790E0019636
:10097000280F391F139683E0A13CB80731F08D9101
:100980009C9111974817590770F33093D604209320
:10099000D5044091FB025091FC0220E030E00AC0F7
:1009A000828190E00196280F391F339694E0E13858
:1009B000F90729F0808191814817590788F330930E
:1009C000D8042093D704279A80918E02813009F0B1
:1009D000CBCE2F9A259A80918E02813009F0CBCE12
:1009E0002D9ACACE40E050E063E088E092E00E9499
:1009F000D61543E050E066E373E080E090E00C94AD
:100A0000BF15CF93DF93C9E9D2E068A979A98AA974
:100A10009BA94EE050E00E94BF156CA97DA98EA94C
:100A20009FA942E150E00E94BF1568AD79AD8AAD43
:100A30009BAD46E150E00E94BF156CAD7DAD8EAD23
:100A40009FAD4AE150E00E94BF156091D9027091BC
:100A5000DA028091DB029091DC024EE150E00E94CC
:100A6000BF156091DD027091DE028091DF029091EE
:100A7000E00242E250E00E94BF15C9EDD4E069E017
:100A800070E088810E94AC156AE070E089810E9464
:100A9000AC156BE070E080915C050E94AC1568E0DD
:100AA00070E08091DB040E94AC156CE070E08091F6
:100AB000F9020E94AC156DE070E08091FB020E948B
:100AC000AC1566E270E08091ED029091EE020E941A
:100AD000B01568E270E08091EF029091F0020E9400
:100AE000B01580918702C1E06AE270E08C270E9415
:100AF000AC15809186026BE270E08C270E94AC15E9
:100B00006CE270E08091EB029091EC020E94B015D3
:100B10006EE270E08091E3020E94AC156FE270E03B
:100B200080918A020E94AC1544E650E060E481E0C6
:100B300093E00E94F71544E251E060E481EC93E019
:100B40000E94F71519DD67E070E0DF91CF910C94FA
:100B5000AC15A09800000000000000008091860203
:100B6000882331F08091090180FF02C082E008955E
:100B7000A09A00000000000000008091090180950B
:100B8000817008958091090180FF16C0A0988AE0C5
:100B900000008150E9F7989888EC00008150E9F74F
:100BA0008091090180FF04C082E0989AA09A08957C
:100BB00081E0989AA09A089580E0989AA09A089562
:100BC0008091A1029091A20220916F002F7D20932D
:100BD0006F0020919A0030919B0040916F0040621D
:100BE00040936F004091F5025091F602782F692FE3
:100BF0008417950710F4742F652FE091BB02E11163
:100C00004DC02417350708F049C040916F004F7D53
:100C100040936F009093F2028093F10230939B0017
:100C200020939A007093FD026093FE022091D904F4
:100C300030E08091B50290E02817390791F1899A48
:100C4000EE2331F181E090E090938B0080938A0055
:100C50008091030380938402109282021BBC109245
:100C60008500109284008091DC049091DD049093C3
:100C700087008093860080918100897F8093810026
:100C80008091810081608093810081E08093BB022C
:100C900080916F00806280936F000895272F362F18
:100CA000B4CF8998CDCF8091A3029091A4022091D6
:100CB00071002F7D20937100209198003091990050
:100CC000409171004062409371004091F702509151
:100CD000F802782F692F8417950710F4742F652F69
:100CE000E091BC02E1114DC02417350708F049C05E
:100CF000409171004F7D409371009093F402809376
:100D0000F30230939900209398007093FF02609350
:100D100000032091DA0430E08091B60290E02817B9
:100D2000390791F18F9AEE2331F181E090E09093B1
:100D30008900809388008091C3038093850210927C
:100D400083021ABC109295001092940080911C05A9
:100D500090911D059093970080939600809191004B
:100D6000897F8093910080919100816080939100B0
:100D700081E08093BC028091710080628093710059
:100D80000895272F362FB4CF8F98CDCF4F925F92F3
:100D90007F928F929F92AF92BF92CF92DF92EF920B
:100DA000FF920F931F93CF93DF93282F30E0F90129
:100DB000EE0FFF1FEB52FB4F00811181D901A756A7
:100DC000BD4F94969C919497992329F0A801440FC4
:100DD000551F040F151F5A96EC915A970E2E000CB2
:100DE000FF0BF7FDB5C09E2F5C967C90D901149641
:100DF000ED01CC0FDD1FCC0FDD1FC756DD4F488145
:100E000059816A817B816F01CC0CDD1C0D2C000C9B
:100E1000EE08FF084C155D056E057F0508F075C0EE
:100E2000C882D982EA82FB82E09FE001E19FD00D77
:100E3000F09FD00D112446015701B694A7949794C2
:100E40008794F901EE0FFF1FE750FD4F408051805E
:100E5000B701A601983009F46FC06E01E12CF12CA6
:100E60008C149D04AE04BF0410F4750164014C1988
:100E70005D096E097F09E901CC0FDD1FCC0FDD1F75
:100E80009E0127563D4FF901008111812281338156
:100E9000F1E07F1609F454C0C157DD4F400F511FD8
:100EA000621F731F488359836A837B83AA0FBB1F0A
:100EB000A756BD4F4D925C929EB3811113C09B7F8C
:100EC0009EBBF09ADF91CF911F910F91FF90EF9011
:100ED000DF90CF90BF90AF909F908F907F905F906A
:100EE0004F906ECE977F9EBBF19ADF91CF911F916D
:100EF0000F91FF90EF90DF90CF90BF90AF909F90B9
:100F00008F907F905F904F90CECEE09FE001E19F69
:100F1000D00DF09FD00D11244A015B01B694A79427
:100F200097948794F901EE0FFF1FE750FD4F408023
:100F30005180983009F091CF487F98EF89228DCF6A
:100F400070956095509541955F4F6F4F7F4FA4CF3F
:100F5000F195E195F10947CF811106C08091BB025F
:100F6000811101C088C9089580916F008F7D8093A1
:100F70006F0080918100887F809381001092B90278
:100F80001092BB0281E08093B10210929702F09818
:100F90000895811106C08091BC02811101C0A0C9D1
:100FA0000895809171008F7D8093710080919100F0
:100FB000887F809391001092BA021092BC0281E067
:100FC0008093B20210929802F1980895811114C092
:100FD00081E0C2DF5F9881E08093B70210927100D8
:100FE00010926F001092800088E18093810010922F
:100FF000900080939100089581E0CBDF8A9881E092
:101000008093B802EBCF8F929F92AF92BF92EF92F4
:10101000FF920F93CF93DF93D82F7B010E94571934
:10102000C82F90918E02911137C0DF3409F458C057
:1010300010928C028D2F0D2E000C990BAA0BBB0B5E
:10104000FC01E554F109EF32F10508F443C00091C9
:101050008D0220E030E0A9016D2FC7010E94B91771
:10106000DA3409F094C38091E402811190C3809135
:101070008E0281118CC3D0E0FE01E756FD4F808DBA
:10108000C956DD4F80FF85C38881823009F47FC354
:1010900081E08883C1E052C04D2F0D2E000C550B0E
:1010A000660B770BFA01E554F109EF32F10560F0B8
:1010B000FA01E154F109EA33F10548F68827EE58C0
:1010C000FF4F8F4F0C94CD1B8827E455FF4F8F4F58
:1010D0000C94CD1B8827E552FF4F8F4F0C94CD1BEE
:1010E000882309F46CC380918C02833108F4D9C140
:1010F000F7018081805380938E0201E0811101C04D
:1011000000E000938D02811190C3C0E020E030E048
:10111000A901DFE40FC0D0E0CC0FDD1FCC0FDD1F35
:10112000C752DD4F288139814A815B8100918D0250
:10113000C1E0D3E76D2FC7010E94B9178C2FDF9153
:10114000CF910F91FF90EF90BF90AF909F908F90B5
:1011500008950FB7F894C7010E940F19D0E0CC0F83
:10116000DD1FCC0FDD1FC756DD4F688379838A836F
:101170009B830FBF00918D02C1E020E030E0A90108
:10118000D5E4D8CF8FB7F894D0E0CC0FDD1FCC0FCB
:10119000DD1FC756DD4F288139814A815B818FBFB2
:1011A00000918D02C1E0DAE6C5CFD0E0C756DD4F31
:1011B0002EA130E040E050E000918D02C1E0D7E682
:1011C000B9CFD0E0C756DD4F8CA1813009F407C1FB
:1011D00020E030E08C8D813009F4E0C288A18111DB
:1011E00001C031608091E402813009F4D9C28AA142
:1011F000811101C020618E8D813009F4D3C240E09D
:1012000050E000918D02C1E0D6E694CFC7010E9464
:101210000F192C2F30E040ECC49FF0011124E25450
:10122000FC4F80809180A12CB12CF901EE0FFF1FA3
:10123000EF55FD4F462F572FBC01481559056A053C
:101240007B0508F4BAC051834083F901E956FD4F8C
:101250008081823009F4B8C0108200918D02C1E013
:1012600020E030E0A901D9E465CFC7010E940F1941
:10127000D0E0FE01EE0FFF1FEE0FFF1FE755FD4F01
:101280006083718382839383C956DD4F18820091F6
:101290008D02C1E020E030E0A901D8E44BCFD701B6
:1012A0008C91D0E0FE01E756FD4F90ED980F908FA6
:1012B00091E011962C91203309F484C0948FC95683
:1012C000DD4F188292A191110AC090918902992351
:1012D00031F08153823008F4BFC281E084A30091D1
:1012E0008D02C1E020E030E0A901D7E423CFD0E0B7
:1012F000CC0FDD1FCC0FDD1FCF53DD4F288139818F
:101300004A815B8100918D02C1E0D5E613CFD0E028
:10131000CC0FDD1FCC0FDD1FC753DD4F2881398176
:101320004A815B8100918D02C1E0D1E603CFC70104
:101330000E94F7188093B30000918D02C1E020E075
:1013400030E0A901D6E5F6CED7014C9140536C2F81
:1013500083E00E94DE1400918D02C1E020E030E0C5
:10136000A901D0E5E7CE81E0C1111BC0F5DD0E94E7
:10137000370100918D02C1E020E030E0A901DCE4FA
:10138000D9CE80E0C1111CC0E7DDD0E0C956DD4FE9
:10139000188200918D02C1E020E030E0A901DBE479
:1013A000C9CEF7DD8A9A1092B80200918D02C1E091
:1013B00020E030E0A901DCE4BDCEB501A40143CFBB
:1013C000E8DDE3CF90E07ACFC1111FC2F9DB0091D5
:1013D0008D02C1E020E030E0A901D9E4ABCE20E0ED
:1013E00034E0F8CE00918D02C1E024E030E040E02E
:1013F00050E0D0E09FCEEC2FF0E0EE0FFF1FEE0F9D
:10140000FF1FEF52FD4F20813181428153810091B6
:101410008D02C1E08FCEC13009F4E6C12091860271
:1014200030E040E050E000918D02C1E083CE8C2F8F
:1014300090E0FC01EE0FFF1FE351FD4F2081318151
:101440005901AA0CBB1C880F991F880F991FFC011A
:10145000EF52FD4FD5011196208131814281538198
:101460000E94E41B950140E050E00E94AB1B0091FC
:101470008D02C1E05FCED7018C91805309F094C1F9
:1014800000918D02C1E020E030E040E850E052CE13
:101490008C2F9CDD00918D02C1E020E030E0A9019D
:1014A00049CED7019C919153933008F4DEC110923C
:1014B0008C0200918D02C1E020E030E0A901D0E073
:1014C00039CEEC2FF0E0EE0FFF1FE750FD4F2081EB
:1014D000318140E050E000918D02C1E02BCE4C2FD5
:1014E00050E0FA01EE57FD4F6081862F90E09C019D
:1014F000220F331F280F391F70EC749FC001759F96
:10150000900D1124820F931F87569D4FDC01A8591F
:10151000BF4FCC9111967C91119712962C2F372F9B
:101520004C9150E081E0860F803408F0ADC180839B
:10153000D2CFC13009F4E9C12091E30271CFCC23AD
:1015400009F4A4C100918D02C1E020E030E0A901BE
:10155000D0E0F0CDC7010E940F19EC2FF0E0EE0FA4
:10156000FF1FEE0FFF1FE752FD4F608371838283E1
:10157000938300918D02C1E020E030E0A901DACD33
:10158000C7010E94F718EC2FF0E0EE0FFF1FE750A5
:10159000FD4F90E09183808300918D02C1E020E0B7
:1015A00030E0A901C7CDC7010E94F718EC2FF0E089
:1015B000EE57FD4F808300918D02C1E0803408F426
:1015C0006CCF23E030E040E050E0D0E0B3CDC70185
:1015D0000E940F19AC2FB0E0FD01EE57FD4F908136
:1015E000292F30E0A901440F551F420F531FC0ECB3
:1015F000CA9F9001CB9F300D1124240F351F275611
:101600003D4FD901A859BF4F11967C936E93129606
:101610008C9381E0890F8083803408F43BCF108263
:1016200000918D02C1E020E030E0A90183CD92302D
:1016300009F48AC1933009F47FC1913009F02ACFAF
:1016400081E0F7019081903309F4AFC10E94EA0272
:1016500081119AC100918D02C1E0B3CFC13009F46C
:101660004CC120915C05DCCEEC2FF0E0E752FB4F43
:101670002081D6CEEC2FF0E0EE0FFF1FE351FD4F9F
:1016800026CFC701C13009F413C10E94F718809317
:101690005C0500918D02C1E020E030E0A9014ACD57
:1016A000EC2FF0E0E752FB4F81E0D7019C919033A3
:1016B00009F411C1808300918D02C1E020E030E087
:1016C000A90138CDC7010E940F19EC2FF0E0EE0FF1
:1016D000FF1FEE0FFF1FEF52FD4F60837183828368
:1016E000938300918D02C1E020E030E0A90122CD7A
:1016F000C7010E940F19EC2FF0E0EE0FFF1FEE0F55
:10170000FF1FE753FD4F60837183828393830091B2
:101710008D02C1E020E030E0A9010CCDC701C1304D
:1017200009F4B7C00E94F71891E0811101C090E060
:101730009093860200918D02C1E020E030E0A90183
:10174000F9CCC7010E940F19EC2FF0E0EE0FFF1F3C
:10175000E351FD4F7183608300918D02C1E020E071
:1017600030E0A901E7CCC701C13009F4B6C00E943E
:10177000F7189FEF980F933108F06CCF8093E30236
:1017800000918D02C1E020E030E0A901D3CCC1E09E
:10179000D5CC81E0888380A3C1E0D0CC32601ECD5F
:1017A000206225CD21602BCD00918D02C1E08130DA
:1017B00009F0CBCE2CE134E040E050E0BBCC80918E
:1017C0008A02882359F14498D7018C91803309F417
:1017D00057C03C9A10928C0200918D02C1E020E02B
:1017E00030E0A901DFE4A6CC80918702282F30E009
:1017F00040E050E09091DB04983060F1C827C0933E
:10180000890200918D02C1E095CC4DDA00918D02E4
:10181000C1E020E030E0A901D9E48CCC3C9AF7018A
:101820008081803379F1449AD5CF81E095DB0E94A5
:10183000370181E0AEDB8A9A1092B80210929702CB
:101840001092980200918D02C1E020E030E0A901E1
:10185000DFE470CCC0E0D3CF14A200918D02C1E0D0
:1018600020E030E0A901D7E465CC8F5F80938C0243
:1018700000918D02C1E020E030E0A901D0E05ACC17
:101880003C98A8CF4498A6CF108225CE20918A02FA
:10189000C7CD0E94F71891E0811101C090E09093AC
:1018A000870200918D02C1E020E030E0A90142CC26
:1018B0000E94F7188093DB048830D8F1809187026A
:1018C0008C2781708093890200918D02C1E020E015
:1018D00030E0A9012FCC80E0EDCE0E940F196115F8
:1018E0007105F1E08F079105C8F000918D0223E0AA
:1018F00030E040E050E0D0E01DCC2091DB0430E04F
:1019000040E050E000918D0215CC2091EB02309127
:10191000EC0240E050E000918D020CCC7093EC02A0
:101920006093EB0200918D02C1E020E030E0A9015C
:1019300001CC80E090E0C5CF55D800918D02C1E088
:1019400020E030E0A901F6CB5CD800918D02C1E027
:1019500020E030E0A901EECBC11113C0992309F4B6
:101960002ECF81E0F7019081903349F080938A0275
:1019700000918D02C1E020E030E0A901DBCB80E0E6
:10198000F5CF9111B5CBAFCB0E94DD02811182CD95
:101990000E94BC0267E070E00E94AC1500918D02CD
:1019A000C1E020E030E0A901C5CB80E04FCECF936D
:1019B000DF93CDB7DEB760970FB6F894DEBF0FBEEA
:1019C000CDBF78940E944D0399249A94AA24AA9496
:1019D000312C212C10E0B12CE12CF12CDD24D394FE
:1019E00088248A9480E2C82E412C512C90E8692EDC
:1019F000712C4B99F1C0D092E4028091BB0281110D
:101A0000E6C18091BC028111E9C18FEFE81AF80AA2
:101A100080918B028111EAC0E114F10409F002C146
:101A200080918E02882309F411C2809102028111F3
:101A3000FDC085B1805885B985B18C2585B9A2D8FE
:101A4000082F8091E202081709F442C045E062E0E5
:101A5000802FB4D780918902882319F0023009F4CD
:101A600044C3809100029091B502913009F401C302
:101A7000D092B3021092BD029091B602913009F457
:101A8000F5C2D092B4021092BE02382F317080FF9E
:101A900092C2139A282F227081FF8BC2159A982F19
:101AA000947082FF84C2179A80910201332309F453
:101AB0007AC282608093020180910201222309F49C
:101AC0006EC2816080930201992309F466C2119A63
:101AD0008091E40281118DCF189B98C01B9BAFC2EF
:101AE0000FEF80E09FB7F89420919A0030919B000F
:101AF0009FBF9091BB02992359F04091B502841782
:101B000039F04091F5025091F6022417350728F17B
:101B10000F3F09F4A6C2E02FEE0FFF0BEB51FD4F74
:101B2000208131813093A2022093A1028093B502DB
:101B30002091BD02222309F428C22091BF028130E6
:101B400009F427C22093B3020F3F29F48091E202E7
:101B5000823009F4C4C234D8A02E199B0FC21A9B3C
:101B600069C20FEF80E09FB7F89420919800309100
:101B700099009FBF9091BC02992389F09091B60281
:101B8000891741F04091F7025091F8022417350768
:101B900008F42FCF0F3F31F499249A942ACF0F3FA6
:101BA00009F406C32091E9023091EA023093A402BD
:101BB0002093A3028093B6029091BE02992309F468
:101BC00044C29091C002813009F443C29093B402A0
:101BD0006AD8902E4B9B0FCF1092E4028FEFE81A39
:101BE000F80A80918B02882309F416CF80910202B3
:101BF00081111CC0E114F10409F41BCF8091E402AF
:101C00008111F7CEE110F5CE189968CF81E0A816C2
:101C100009F4A3CF81E09091E102913009F080E0D6
:101C200001E060CF80910202882341F31E3F09F456
:101C3000C7C00E94F916882309F185B1805885B97B
:101C400085B18C2585B90E940417B82E40918D026C
:101C50006B2DCE0101960E94A818182F882371F0D1
:101C60000CF4EFC0BE016F5F7F4FCDD9082FCE01BE
:101C700001960E945817002309F49FC1E114F10452
:101C800061F480918E02813009F476C12F988091A1
:101C90008E02813009F46EC12D988091E402811189
:101CA00045C080918B02811141C0E1103FC0189B5B
:101CB000D4C103B103FB002700F901950A1551F0C7
:101CC0008091B502811105C080919702823009F49C
:101CD00074C2A02E199BC3C103B102FB002700F9F7
:101CE00001958091BA02811121C00915F9F081E0B6
:101CF000013009F080E09091BC029111C3C10F3F07
:101D000009F475C22091E9023091EA023093A402ED
:101D10002093A3028093B602013009F493C2D092BB
:101D2000B4020E945306902E33243394809197027C
:101D3000813009F456C080919802813009F059CE63
:101D40009091BC02911155CE2091B20290918902DE
:101D5000992309F452C19FEF920F923008F40AC2FE
:101D6000909101028091C0023091B602313009F4A5
:101D70001BC28093B402D092BE028091020190FDFA
:101D80007DC18D7F809302018091010193FDA3C1EC
:101D90008260809301018091020191FF98C181606E
:101DA000809302018091010194FD8DC18160809337
:101DB000010192FF86C1119A95FD81C1099A26C140
:101DC00085B1805885B985B18C2585B93FCF81E033
:101DD000C3D88091BC02882309F417CE81E0D9D8FA
:101DE00014CE8091BB028111A6CF9091B102809157
:101DF0008902882309F4F0C08FEF890F823008F43C
:101E0000C4C1809101022091BF023091B5023130EE
:101E100009F4C6C12093B302D092BD0280FD2CC14B
:101E2000139883FD48C10B9A81FF43C1159A84FD25
:101E30003EC10D9A82FF39C1179A85FD3EC10F9AA6
:101E4000D4C0CE0101960E94581718CF0E94A90550
:101E5000082F882309F4E9CD81E07ED881E099D864
:101E60008FB7F8944092990250929A0260929B0226
:101E700070929C0240929D0250929E0260929F023C
:101E80007092A0028FBF3BD7D0928B02023009F430
:101E9000BBC110920202A09AE0918802F0E0E050EB
:101EA000FE4F8081282F217080FDFDC01398982F50
:101EB000987083FD47C10B9A222309F43DC12091FC
:101EC0000201226020930201911130C19091010121
:101ED000926090930101282F227081FF25C1159AED
:101EE000982F907184FD44C10D9A222309F43AC1C0
:101EF0002091020121602093020191112DC1909146
:101F00000101916090930101282F247082FF22C16A
:101F1000179A982F907285FD1BC10F9A222309F4FE
:101F200015C1119A911110C1099A45E062E080E053
:101F300045D51092BD021092BE0280E047D881E0E4
:101F400045D8D092B102D092B2021092B502D0928E
:101F5000B3021092B6028091ED029091EE0290933E
:101F6000A2028093A102D092970299249A94AA2463
:101F7000AA945BCD2D9A91CE2F9A89CE81E09816A6
:101F800009F437CD01E081E0EECD21E0813009F0A8
:101F9000D9CD21952093B302D7CD119899CD8E7FBD
:101FA0008093020191CD8D7F8093020185CD17989A
:101FB0007BCD159874CD13986DCD66D79BE088E1E5
:101FC0000FB6F894A895809360000FBE90936000C0
:101FD00080E090E00E94121C8091B502813009F4EB
:101FE000A0C0D092B3021092BD0290FF17C00E9411
:101FF000E00582E0809397029ECE9091B6029130E8
:1020000009F48CC08093B4021092BE0220FF0CC071
:102010000E94530682E080939802EBCC80E00E94FD
:10202000C6061092970287CE81E00E94C6061092E3
:102030009802DFCC992009F4DCCC00E093CDAA20F3
:1020400009F48BCD00E080E04DCD91E0813009F0C6
:10205000BDCD91959093B402BBCD01E02FCE01E0B0
:1020600040CE2091ED023091EE025CCD8092B40220
:102070000ACD8092B302FECC139AD3CE82608093B5
:10208000020182CE2091B602821709F438CE109256
:10209000980280919702813009F0ABCC8091BB020D
:1020A0008111A7CCA2CE139A02CF1798C6CE0D9855
:1020B000C1CE1598BCCE0B98B7CE0F9896CF099885
:1020C000A5CF119879CE8E7F8093010172CE8E7F3D
:1020D0008093020167CE8D7F809301015CCE9923AE
:1020E00009F48DC0AA24AA9438CD80910102909160
:1020F000BF022091B502213009F49BC09093B30236
:10210000D092BD029091C0022091B602213009F414
:102110008CC09093B402D092BE02B7CC8092B4022D
:1021200073CF8092B3025FCF1598DACE9091010100
:102130009D7F90930101CFCE209102012D7F2093AE
:102140000201C2CE0B98B8CE0998EFCE1198EACE14
:102150000F98E4CE1798DDCE909101019E7F909369
:102160000101D2CE209102012E7F20930201C5CE23
:102170000D98BBCE909100023091B6023130A1F1A2
:102180008093B4021092BE02F8CD8091000220919B
:10219000B502213031F1D092B3021092BD023ECE91
:1021A00021952093B30238CE81958093B402E3CD7C
:1021B0000E94700199249A941CCC0F3F09F43DC0F1
:1021C000E02FEE0FFF0BEB51FD4F8081918190933B
:1021D000A2028093A1020E94E005A02E2224239453
:1021E00079CD8092B302D9CF8092B402CBCF332085
:1021F00061F1992369F199249A94312C97CD0E9429
:102200003B01AA24AA94A9CCD092020292D50091B3
:102210008D0224E030E040E050E060E0CE010C961A
:10222000A8D6CE010C9644D600CC91959093B402DA
:1022300072CF91959093B30263CF21100FC0AA245F
:10224000AA9448CD8092B4026CCD99249A946ECD14
:102250000E94700199249A94312C68CD8091ED02EE
:102260009091EE029093A2028093A1020E94E00559
:10227000AA24AA94212C2ECD1F920F920FB60F9252
:1022800011240BB60F920F931F932F933F934F93ED
:102290005F936F937F938F939F93EF93FF938091BF
:1022A000880090918900019709F05FC08AB5E82FF6
:1022B000EE73F0E0E45EFA4F2081318130939700B5
:1022C000209396008F5F8ABD80919800909199002D
:1022D00090938900809388007E9B5EC08E980091C9
:1022E0009D0210919E0220919F023091A002409188
:1022F000B402042E000C550B660B770B400F511FD8
:10230000621F731F40939D0250939E0260939F0231
:102310007093A002F19B10C0F3990EC0009193023C
:102320001091940220919502309196024017510726
:102330006207730709F486C02091FF023091000301
:1023400028173907B0F4F19B03C01092BA02F19834
:102350001092BC02809171008F7D809371008091FA
:102360009100887F8093910004C0909389008093AE
:102370008800FF91EF919F918F917F916F915F9175
:102380004F913F912F911F910F910F900BBE0F9086
:102390000FBE0F901F9018958E9A209185022111E3
:1023A00023C02091F3023091F4022817390700F579
:1023B000809183028F3398F48F5F8093830290E043
:1023C000AC01440F551F840F951F87569D4FFC018C
:1023D000E85DFE4F408151812417350718F1309395
:1023E000990020939800C5CF215020938502C1CF3A
:1023F0008217930728F580918302882381F3815007
:102400008093830290E0AC01440F551F840F951F09
:1024100087569D4FFC01E85DFE4F40815181421778
:102420005307E8F62091BE022223D9F0329680812C
:10243000982F990F890F8E5F809385029A01CFCFD5
:102440009C01CDCFF39A2091FF0230910003A901A6
:102450004F5F5F4F5093F4024093F3021092850256
:102460006FCFFC01E65DFE4F8081809385029A016B
:10247000B6CF1F920F920FB60F9211240BB60F9288
:102480000F931F932F933F934F935F936F937F937C
:102490008F939F93EF93FF9380918A0090918B008D
:1024A000019709F05FC08BB5E82FEE73F0E0E452BE
:1024B000FB4F2081318130938700209386008F5F0E
:1024C0008BBD80919A0090919B0090938B0080939C
:1024D0008A00789B5EC088980091990210919A02B8
:1024E00020919B0230919C024091B302042E000C7B
:1024F000550B660B770B400F511F621F731F4093E4
:10250000990250939A0260939B0270939C02F09BF5
:1025100010C0F2990EC000918F021091900220918C
:10252000910230919202401751076207730709F434
:1025300086C02091FD023091FE0228173907B0F4C1
:10254000F09B03C01092B902F0981092BB028091E8
:102550006F008F7D80936F0080918100887F8093D2
:10256000810004C090938B0080938A00FF91EF91CB
:102570009F918F917F916F915F914F913F912F919B
:102580001F910F910F900BBE0F900FBE0F901F90D9
:102590001895889A20918402211123C02091F1027C
:1025A0003091F2022817390700F5809182028F33AB
:1025B00098F48F5F8093820290E0AC01440F551F26
:1025C000840F951F87569D4FFC01E859FF4F4081AE
:1025D00051812417350718F130939B0020939A00FE
:1025E000C5CF215020938402C1CF8217930728F5CD
:1025F00080918202882381F381508093820290E04F
:10260000AC01440F551F840F951F87569D4FFC0149
:10261000E859FF4F4081518142175307E8F6209156
:10262000BD022223D9F032968081982F990F890F0D
:102630008E5F809384029A01CFCF9C01CDCFF29A16
:102640002091FD023091FE02A9014F5F5F4F509330
:10265000F2024093F102109284026FCFFC01E6591E
:10266000FF4F8081809384029A01B6CFCF93DF938E
:1026700000D01F921F92CDB7DEB78330E1F1809179
:10268000ED029091EE0244E1489FF001499FF00D68
:1026900011242091E30230E0B9016C5E7F4FCF013D
:1026A0000E94971B7093E6026093E50264E170E07C
:1026B000621B730BCF010E94971B7093E80260931B
:1026C000E7021092E1026091EF027091F002469FE2
:1026D000C001479F900D1124B9010E94971B709370
:1026E000EA026093E9020F900F900F900F900F9005
:1026F000DF91CF91089585E0E3E0F2E0DE011196ED
:1027000001900D928A95E1F7453068F7611128C074
:102710002091ED023091EE02220F331F220F331F62
:10272000220F331FE1E0F0E0EC0FFD1FE40FF11D7D
:10273000E081F0E0BF01685F7F4FC901F8D7709377
:10274000E6026093E50268E070E06E1B7F0BC90152
:10275000EED77093E8026093E7021092E102C3CFD4
:10276000613009F0C0CF8091EF029091F002880FA4
:10277000991F880F991F880F991FE1E0F0E0EC0F77
:10278000FD1FE40FF11D608170E0D1D77093EA0264
:102790006093E902A8CF3F924F925F926F927F922F
:1027A0008F929F92AF92BF92CF92DF92EF92FF9261
:1027B0000F931F93CF93DF9300D01F92CDB7DEB757
:1027C0006B017C01442E8EE090E06ED16093C902D3
:1027D0007093CA028093CB029093CC0282E190E086
:1027E00063D16093CD027093CE028093CF02909319
:1027F000D00286E190E058D16093D1027093D2026A
:102800008093D3029093D4028AE190E04DD16093FB
:10281000D5027093D6028093D7029093D8028EE1AE
:1028200090E042D16093D9027093DA028093DB0288
:102830009093DC0282E290E037D16093DD027093E6
:10284000DE028093DF029093E00286E290E01DD1E9
:102850009093EE028093ED0288E290E016D190937F
:10286000F0028093EF028CE090E00ED190E0909324
:10287000FA028093F9028DE090E006D190E0909307
:10288000FC028093FB028EE290E0FED08093E30294
:102890008CE290E0FAD09093EC028093EB021092DD
:1028A000E40244E650E060E481E093E034D144E2A5
:1028B00051E060E481EC93E02ED1E9E9F2E06DEEC5
:1028C00072E021E033E045EF52E00DEF12E081EFDE
:1028D000682E82E0782EFA83E983FC83EB8392E012
:1028E000592E33243394812C912CA0E8AA2EB12C9C
:1028F000148E328E14A212A210A2168EAB81BC814D
:102900008D929D92AD92BC921397DB018D919D911A
:10291000BD01A981BA8119969C938E931897308E28
:10292000AB81BC8150961D921D921D921C925397B3
:102930009896CD92DD92ED92FC929B9746A2D9019A
:102940008D919C91DA018D939D93AD01D8018D936A
:102950009D938D010196D3018D939D933D01A98196
:10296000BA811D969C938E931C975A9431968B81B5
:102970009C8104969C838B831296BA83A9832054EE
:102980003F4F5110B5CF1092E20245E062E080E087
:102990000F900F900F900F90DF91CF911F910F919B
:1029A000FF90EF90DF90CF90BF90AF909F908F906F
:1029B0007F906F905F904F903F9058CE582F8093AC
:1029C000E202823019F08130C9F050CE8091F902D4
:1029D0009091FA029093E6028093E5029093E802C8
:1029E0008093E70281E08093E1028091FB02909165
:1029F000FC029093EA028093E9020895E091ED02CF
:102A0000F091EE029F01ABEABAEACFD69695879590
:102A10009093E6028093E502F093E802E093E702E8
:102A20005093E1028091EF029091F0029695879584
:102A30009093EA028093E9020895EFE0F2E02AE63B
:102A400090E005C09F5F9732E9F0208133968213B2
:102A5000F9CF892F90E0FC01EE0FFF1F8E0F9F1F13
:102A6000FC01E45FFD4F611105C08281411105C089
:102A70008F70089581814423D9F385958595859537
:102A8000859508958FEF0895B7C61F93CF93DF9371
:102A9000EC01B2D6182FCE010196AED6982F812F19
:102AA000DF91CF911F910895CF92DF92EF92FF9225
:102AB000CF93DF93EC01E9DF6C01CE010296E5DFF5
:102AC0007C01C701B601DF91CF91FF90EF90DF90BD
:102AD000CF900895EF92FF920F931F93CF93DF93C0
:102AE000662391F0EA018C0161507A01E60EF11C37
:102AF0008FEFE81AF80ACE017FD6F80181938F0193
:102B00002196CE15DF05B9F7DF91CF911F910F9177
:102B1000FF90EF900895EF92FF920F931F93CF9342
:102B2000DF93E62E8A01662381F0EC01F12CC801C7
:102B3000ACDF99838883C8010296A7DF8A830D5F83
:102B40001F4FF3942396EF10F2CFDF91CF911F9197
:102B50000F91FF90EF900895282FCB01622F54C65C
:102B60001F93CF93DF93192FEB01682FCE014CD623
:102B7000612FCE010196DF91CF911F9145C6CF9273
:102B8000DF92EF92FF92CF93DF936B017C01EA011A
:102B9000BA01C601E5DFBE016E5F7F4FC701DF915D
:102BA000CF91FF90EF90DF90CF90DACFEF92FF922E
:102BB0000F931F93CF93DF93662391F0EC01615045
:102BC000E62EF12C8FEFE81AF80AEC0EFD1E8A01B2
:102BD0006991C80119D60F5F1F4FCE15DF05C1F7E8
:102BE000DF91CF911F910F91FF90EF900895EF9299
:102BF000FF920F931F93CF93DF93E62E8A016623F4
:102C000081F0EC01F12CB80188819981A9DF6A81FA
:102C1000C8010296F9D50D5F1F4FF3942396EF106C
:102C2000F2CFDF91CF911F910F91FF90EF90089518
:102C3000CF92DF92EF92FF92CF93DF936B017C01F3
:102C400082E08093C00060E079E08DE390E0A7012E
:102C5000960181D5DA01C9010197A109B109AC0139
:102C6000BD017695679557954795842FC52F90E0C0
:102C7000D92F9E01207F3327232BB1F01092C00063
:102C800060E874E88EE190E0A701960164D5DA016E
:102C9000C9010197A109B109AC01BD0176956795FC
:102CA00057954795CA01C92FCF70C093C50080932F
:102CB000C4008FB7F8941092C4041092C504109207
:102CC000A2041092A3048FBF8091C1008061809301
:102CD000C1008091C10088608093C1008091C100D3
:102CE00080688093C1008091C1008F7D8093C10076
:102CF000DF91CF91FF90EF90DF90CF900895E1ECBE
:102D0000F0E080818F7E80838081877F80838081D7
:102D10008F77808380818F7D80838FB7F894E4EAFA
:102D2000F4E010A211A2E2E8F4E010A211A28FBF19
:102D30000895219A299A23982B9A229A2A9A209ABE
:102D4000289AA09A8FB7F894E4EAF4E010A211A2AE
:102D5000E2E8F4E010A211A28FBF81E08093810429
:102D600008952198299A23982B9A22982A9A209894
:102D7000289A109281048FB7F894E4EAF4E010A244
:102D800011A2E2E8F4E010A211A28FBF089598E02A
:102D900008C000002A98299A880F1B998F5F9150CC
:102DA00029F0299887FFF5CF2A9AF5CF08959091B9
:102DB000A3048091A204981719F08091090180FD65
:102DC0000895289881E8E3DF8091090180FFFCCF16
:102DD00080E8DDDF87FD0BC0E091A204F0E0EE5754
:102DE000FB4F80838091A2048F5F8093A204289A76
:102DF0000895809181048111DADF8091A20490917D
:102E0000A304891B8F7108959091A3048091A2045B
:102E1000981751F0E92FF0E0EE57FB4F80819F5F4C
:102E20009F719093A30408958FEF08959091C1002E
:102E300093FF16C09091C4049F5F9F712091C504B9
:102E40009217C1F0E091C404F0E0EC55FB4F808391
:102E50009093C4048091C10080628093C100089562
:102E600090918104911101C0089528988F778FDF88
:102E7000289A08952091C10020622093C1002091DA
:102E8000C5049217E1F3DECF8091C10083FF0FC02C
:102E90009091C4048091C504981749F08091C100B5
:102EA00080628093C1008091C5049813FCCF08957F
:102EB000CF93DF93EC018881882329F02196B6DF38
:102EC00089918111FCCFDF91CF9108952F932FB776
:102ED0002F939F938F93EF93FF932091C600809140
:102EE000A2048F5F8F719091A304891741F0E09144
:102EF000A204F0E0EE57FB4F20838093A204FF91E1
:102F0000EF918F919F912F912FBF2F9118958F93B4
:102F10008FB78F939F93EF93FF938091C504909108
:102F2000C404891306C08091C1008F7D8093C100C5
:102F30000BC0E82FF0E0EC55FB4F90818F5F8F7155
:102F40008093C5049093C600FF91EF919F918F915C
:102F50008FBF8F9118951092D4041092C8042BE063
:102F6000E9ECF4E0DF011D922A95E9F71092C7041D
:102F700012CCCF92DF92EF92FF920F93CF93DF9319
:102F8000EC01862F69017A0161111CC081E28883FE
:102F9000013009F47FC080E389838C2D8F708A30E3
:102FA00010F18F5B8A83E2E0F0E0EC0FFD1F8DE013
:102FB00081831282DF91CF910F91FF90EF90DF908C
:102FC000CF900895402F60E038DD87FDDFCF9DE38F
:102FD0009883823069F08330A9F0863059F1E82F68
:102FE000880FFF0BE2CF805D8A83E2E0F0E0DDCF67
:102FF0008C2D82958F708A3018F08F5B8983CDCFAE
:10300000805DCACF8D2D8F708A3008F44EC08F5BE3
:1030100089838C2D82958F708A3008F443C08F5B32
:103020008A838C2D8F708A30C0F18F5B8B83E3E0B5
:10303000F0E0BBCFC701AA27BB27282F22952F700E
:103040002A3008F441C02F5B2D838F708A30C8F17D
:103050008F5B8E83BB27AF2D9E2D8D2D282F229524
:103060002F702A3058F12F5B2B838F708A3018F124
:103070008F5B8C838C2D82958F708A30C8F08F5B2C
:1030800089838C2D8F708A3010F5805D8A83E6E00D
:10309000F0E08BCFE0E0F0E088CF805D8B83E3E071
:1030A000F0E083CF805D8A83BCCF805D8983B1CF20
:1030B000805D8983E6CF805D8C83DCCF205D2B83B0
:1030C000D4CF805D8E83C6CF205D2D83BECF8F5B36
:1030D0008A83E6E0F0E069CF0F931F93CF932091AE
:1030E000C9042093C6049091CA0491539093C704D5
:1030F000933028F083E0CF911F910F9108958B01B9
:10310000C82F61E0822F99DC4DEF4C0F082E000C88
:10311000990B242F30E08217930729F081E0CF919B
:103120001F910F910895442369F0EBECF4E0D8016E
:103130008CEF8C0F90E084539B4F41914D93E81797
:10314000F907D9F7F801E20FF31F10828FEFD3CF01
:10315000CF93DF93EC019091D4049923A1F06A33CB
:10316000E1F0E091C80481E08E0F8093C804F0E0A4
:10317000E753FB4F60836D3011F18B30E9F080E055
:10318000DF91CF9108956A33D1F71092C80481E09E
:103190008093D4041092C904F2CF93E38EEF21E21E
:1031A000288320E329839A831B829DE09C831092CD
:1031B000D404DF91CF91089591E38FEFF0CFBE015A
:1031C0008BDF982F8F3F59F081E2888380E38983DA
:1031D0009F709A3048F09F5B9A838FEFE5CF1092F3
:1031E000D4048091C604CCCF905D8FEFDCCFFC017E
:1031F00091819A3354F09154892F8F7090819A3332
:103200004CF49F709295892B0895892F8F7090812F
:103210009A33BCF391549F709295892B0895FC01C9
:1032200061816A3324F16154962F9F7060816A3303
:103230001CF161546F706295692B73817A3314F1BC
:103240007154972F9F7072817A330CF171547F7093
:103250007295792B85818A3304F181548F70948122
:103260009A33FCF49F709295892B90E00895962FE5
:103270009F7060816A33ECF66F706295692B738181
:103280007A33F4F6972F9F7072817A33FCF67F7051
:103290007295792B85818A3304F78F7094819A33E4
:1032A0000CF391549F709295892B90E00895809132
:1032B000C70408955058BB27AA270ED084C175D1E2
:1032C00030F07AD120F031F49F3F11F41EF46AC13E
:1032D0000EF4E095E7FB37C1E92F86D180F3BA17EA
:1032E000620773078407950718F071F49EF5B5C15E
:1032F0000EF4E0950B2EBA2FA02D0B01B901900111
:103300000C01CA01A0011124FF27591B99F0593F54
:1033100050F4503E68F11A16F040A22F232F342F9C
:103320004427585FF3CF469537952795A795F040EA
:103330005395C9F77EF41F16BA0B620B730B840BFF
:10334000BAF09150A1F0FF0FBB1F661F771F881FB7
:10335000C2F70EC0BA0F621F731F841F48F487950F
:1033600077956795B795F7959E3F08F0B3CF9395FE
:10337000880F08F09927EE0F97958795089556D1F5
:1033800080F09F3740F491110EF468C160E070E066
:1033900080E89FE3089526F01B16611D711D811DB5
:1033A000D8C0F2C00CD00FC107D140F0FED030F031
:1033B00021F45F3F19F0C7C0511150C1F3C014D1BF
:1033C00098F39923C9F35523B1F3951B550BBB27EC
:1033D000AA2762177307840738F09F5F5F4F220F99
:1033E000331F441FAA1FA9F333D00E2E3AF0E0E892
:1033F00030D091505040E695001CCAF729D0FE2FDE
:1034000027D0660F771F881FBB1F2617370748076F
:10341000AB07B0E809F0BB0B802DBF01FF27935825
:103420005F4F2AF09E3F510568F08DC017C15F3F86
:10343000ECF3983EDCF3869577956795B795F7950D
:103440009F5FC9F7880F911D9695879597F9089505
:10345000E1E0660F771F881FBB1F621773078407A1
:10346000BA0720F0621B730B840BBA0BEE1F88F7B0
:10347000E0950895C1D088F09F5790F0B92F992713
:10348000B751A0F0D1F0660F771F881F991F1AF06F
:10349000BA95C9F712C0B13081F0DFD0B1E008951C
:1034A000DCC0672F782F8827B85F39F0B93FCCF39D
:1034B000869577956795B395D9F73EF49095809565
:1034C000709561957F4F8F4F9F4F0895E89409C085
:1034D00097FB3EF490958095709561957F4F8F4F47
:1034E0009F4F9923A9F0F92F96E9BB279395F6955D
:1034F000879577956795B795F111F8CFFAF4BB0FDB
:1035000011F460FF1BC06F5F7F4F8F4F9F4F16C03E
:10351000882311F096E911C0772321F09EE8872FC8
:10352000762F05C0662371F096E8862F70E060E084
:103530002AF09A95660F771F881FDAF7880F9695FD
:10354000879597F9089597F99F6780E870E060E0A4
:103550000895882371F4772321F09850872B762FD4
:1035600007C0662311F499270DC09051862B70E097
:1035700060E02AF09A95660F771F881FDAF7880FA8
:103580009695879597F908959F3F31F0915020F4D3
:10359000879577956795B795880F911D969587952F
:1035A00097F908959FEF80EC089500240A94161669
:1035B000170618060906089500240A941216130621
:1035C000140605060895092E0394000C11F48823AF
:1035D00052F0BB0F40F4BF2B11F460FF04C06F5FCB
:1035E0007F4F8F4F9F4F089557FD9058440F551FA1
:1035F00059F05F3F71F04795880F97FB991F61F075
:103600009F3F79F087950895121613061406551FEB
:10361000F2CF4695F1DF08C0161617061806991F57
:10362000F1CF86957105610508940895E5DFA0F056
:10363000BEE7B91788F4BB279F3860F41616B11D92
:10364000672F782F8827985FF7CF869577956795AE
:10365000B11D93959639C8F30895E894BB27662762
:103660007727CB0197F908950BD0ADCF9EDF28F0D7
:10367000A3DF18F0952309F066CF94CF1124EECF85
:10368000B3DFA0F3959FD1F3950F50E0551F629FD4
:10369000F001729FBB27F00DB11D639FAA27F00DAB
:1036A000B11DAA1F649F6627B00DA11D661F829FD2
:1036B0002227B00DA11D621F739FB00DA11D621FB7
:1036C000839FA00D611D221F749F3327A00D611DD4
:1036D000231F849F600D211D822F762F6A2F1124B6
:1036E0009F5750408AF0E1F088234AF0EE0FFF1F09
:1036F000BB1F661F771F881F91505040A9F79E3F40
:10370000510570F020CFAACF5F3FECF3983EDCF379
:10371000869577956795B795F795E7959F5FC1F77C
:10372000FE2B880F911D9695879597F90895AA1BF2
:10373000BB1B51E107C0AA1FBB1FA617B70710F09C
:10374000A61BB70B881F991F5A95A9F780959095CE
:10375000BC01CD010895A1E21A2EAA1BBB1BFD01DD
:103760000DC0AA1FBB1FEE1FFF1FA217B307E40760
:10377000F50720F0A21BB30BE40BF50B661F771FB8
:10378000881F991F1A9469F7609570958095909598
:103790009B01AC01BD01CF010895EE0FFF1F881FF3
:1037A0008BBF0790F691E02D1994A29FB001B39FB3
:1037B000C001A39F700D811D1124911DB29F700D3A
:1037C000811D1124911D0895F0DFA59F900DB49FD8
:1037D000900DA49F800D911D11240895FB01DC0123
:1037E0004150504030F08D910190801919F4002023
:1037F000B9F7881B990B0895F999FECF92BD81BD49
:10380000F89A992780B50895262FF999FECF1FBA07
:1038100092BD81BD20BD0FB6F894FA9AF99A0FBEF9
:0838200001960895F894FFCF12
:103828000300010806040201414551006A0066666A
:1038380000334966004722004A00004B00004866F2
:10384800004D6600650066610066620066670022DA
:103858007300664566005011004600004C00005693
:1038680022007106264F1100416600426600536629
:10387800006E00664E660044220064002243110078
:103888006300225A22007A002252660072006651B2
:1038980024006F00225866007800665922005411EF
:0238A80000001E
:00000001FF
