:1000000009C1000033C1000031C100002FC1000050
:100010002DC100002BC1000029C1000027C1000034
:1000200025C1000023C1000021C100001FC1000044
:100030001DC100001BC1000019C1000017C1000054
:100040000C944C1213C1000011C100000FC100003C
:100050000DC100000BC1000009C1000007C1000074
:1000600005C100000C9475170C949617FFC0000092
:10007000FDC00000FBC00000F9C000000C944F114F
:10008000F5C00000F3C00000F1C00000EFC00000A8
:10009000EDC00000EBC00000E9C00000E7C00000B8
:1000A000E5C00000E3C00000E1C00000DFC00000C8
:1000B000DDC00000DBC00000D9C00000D7C00000D8
:1000C000D5C00000D3C00000D1C00000CFC00000E8
:1000D000CDC00000CBC00000C9C00000C7C00000F8
:1000E000C5C00000810B6B0B590B4A0B2C082C0868
:1000F0002C082C082C082C082C082C082C08AA0BDF
:100100002C082C08970BBC0BB30A200B2C082C08CE
:100110002C08F00ADC0AC90A2C082C082C082C0828
:100120002C082C082C082C083D0B370B2C082C080D
:100130002C082C082C082C082C082C082C08430B05
:10014000A80A2C082C08A20A2C082C082C082C0819
:100150002C08780A2C086A0AAE08FB0954093A09E7
:100160000B095D08C609B8095D085D08B90CA90945
:100170005D085D085D085D085D089C095D085D0817
:100180005D085D085D085D085D085D085D085D0847
:100190008C09040A5D085D087C09E608DA085D0838
:1001A0005D08C7085D085D085D085D085D085D08BD
:1001B000140A5D089008AE08510A54093A090B095F
:1001C0002C08C609B8092C082C082C08A9092C08E9
:1001D0002C082C082C082C089C092C082C082C080E
:1001E0002C082C082C082C082C082C082C088C090E
:1001F000200A2C082C087C09E608DA082C082C08B0
:10020000C7082C082C082C082C082C082C08440A99
:100210002C08900811241FBECFEFD1E2DEBFCDBF66
:1002200000E00CBF0FB6F894A8958091600088613B
:1002300080936000109260000FBE12E0A0E0B2E078
:10024000E6E4F8E300E00BBF02C007900D92A2388D
:10025000B107D9F725E0A2E8B2E001C01D92AF35A1
:10026000B207E1F70E94E40C0C94211CC9CEA59AB8
:100270001092B70208954FB7F8941092B902F0980F
:100280008091B10280FD03C081E08093B102209192
:10029000F5023091F6028091F1029091F2028217FC
:1002A000930758F08091FD029091FE020196909381
:1002B000F2028093F1024FBF08958091FD02909168
:1002C000FE022817390790F73093FE022093FD02B3
:1002D000C90101969093F2028093F1024FBF0895F5
:1002E0004FB7F8941092BA02F1988091B20280FD53
:1002F00003C081E08093B2022091F7023091F802AE
:100300008091F3029091F4028217930758F0809144
:10031000FF029091000301969093F4028093F30200
:100320004FBF08958091FF0290910003281739076D
:1003300090F7309300032093FF02C9010196909338
:10034000F4028093F3024FBF0895883018F4880FA9
:10035000880F880F613061F108F1623069F0633015
:10036000B1F48830D9F1803209F04AC08AE2809332
:100370000002809301020895883059F1803299F586
:100380008AE28093000288E280930102089587E068
:100390008093000281E0809301020895883099F0F3
:1003A0008032A9F782E080930002809301020895D1
:1003B000883049F08032F1F485E08093000282E0D9
:1003C00080930102089583E080930002109201025D
:1003D00008956093000210920102089510920002A5
:1003E00010920102089587E08093000285E08093D7
:1003F0000102089584E08093000260930102089551
:1004000080E18093000288E28093010208954F9278
:100410005F926F927F928F929F92AF92BF92CF9294
:10042000DF92EF92FF92CF93DF93C82FD0E0FE01CF
:10043000EE0FFF1FEE0FFF1FEF52FD4F80809180E8
:10044000A280B38060E072E18AE790E0A5019401A8
:100450000E94BA1B69017A010E94751A2B013C01A6
:10046000C501B4010E94751A9B01AC01C301B20120
:100470000E94E11920E030E040E052E40E94431B7A
:1004800020E030E040E05FE30E946A190E94491AD0
:100490004B015C01E114F10451F480E8C816D10469
:1004A000E104F10408F066C020E830E002C02FEF5C
:1004B0003FEFCE01002496958795079496958795F2
:1004C0000794982F802DFC01E452FB4F845E9A4FD5
:1004D00021933193E817F907D9F781149104A10406
:1004E000B104C9F1C501B4010E94751A2B013C0188
:1004F000C12CD12C7601CC0FDD1FC295D295D07FB7
:10050000DC27C07FDC27C701B6010E94751A20E0F6
:1005100030E040E052E40E94431BA30192010E949C
:10052000E1190E94CE190E94491AFE01E60FF11D41
:10053000EE0FFF1FE452FB4F808191810196918362
:1005400080838FEFC81AD80AE80AF80A8C149D0431
:10055000AE04BF04C1F6DF91CF91FF90EF90DF9022
:10056000CF90BF90AF909F908F907F906F905F9053
:100570004F90089596019DCF0F931F93CF9308E05E
:1005800010E0C0E0C8010E9457159C2F982788E012
:1005900027E0990F08F492278A95D9F7C92F0F5FA2
:1005A0001F4F043E81E0180769F7911101C0C1E0B7
:1005B0008C2FCF911F910F910895CF9387E090E0FA
:1005C0000E945715C82FD8DF91E0C81390E0892FFB
:1005D000CF9108951F93CF93DF9300D01F92CDB793
:1005E000DEB7182F40E050E063E0CE0101960E9494
:1005F0007D1543E050E068E072E0CE0101960E9474
:10060000FD1B892B49F080E00F900F900F900F9009
:10061000DF91CF911F91089583E090E00E946715CC
:10062000663373408105910571F7112391F1809133
:100630005C05843040F7882339F18091DB048132F6
:1006400010F78091ED029091EE02C2978F3794409F
:10065000D0F68091EF029091F002C2978F379440CC
:1006600090F68091F9029091FA02892B61F28091C3
:10067000FB029091FC02892B31F29091E3029150A0
:1006800081E0933108F2BFCF8091DB048131C8F261
:10069000BACF93DF8111CBCFB6CF89E090E00E9433
:1006A000571591E0811101C090E09093D9048AE040
:1006B00090E00E94571591E0811101C090E0909365
:1006C000DA048BE090E00E94571580935C0588E087
:1006D00090E00E9457158093DB048BE290E00E942B
:1006E000571591E0811190E0909386028FE290E09F
:1006F0000E94571591E0811101C090E090938A0209
:1007000081E09091DB04983008F080E080938802CB
:100710008AE290E00E94571591E0811190E0909359
:1007200087029091DB04983010F081110DC1109276
:10073000890241E066E373E080E090E00E94BA172E
:1007400060915C058091DB0400DE80E043DF811175
:1007500002C181E080938E0280938D02279A80915E
:100760008E02813009F43CC12F980A98129A509851
:10077000589A099A119A23982B9A2098289A229885
:100780002A9A2198299A819A8998809A88989D9A7C
:10079000A59A8091010180628093010180910201FC
:1007A0008062809302016B9A7398269A2E986D9AB4
:1007B000759880910101806180930101809102010F
:1007C0008F7E80930201E0918802F0E0E050FE4FBE
:1007D0008081282F21709091050180FF6FC091606A
:1007E00090930501982F98703091040183FD6FC09C
:1007F000316030930401222309F46EC0599A91119B
:100800006FC0519A282F22709091020181FF6FC012
:10081000926090930201982F90713091010184FDB4
:100820006FC0326030930101222309F46EC05A9ADE
:1008300091116FC0529A282F24709091020182FF6B
:100840006FC0916090930201982F907285FD6FC0E8
:1008500080910101816080930101222309F46EC01F
:100860005B9A91116FC0539A8FE99FE00197F1F75E
:1008700000C00000899A889A80918A02811169C01B
:10088000089A1098249A2C981092B6001092B300EF
:100890001092B0001092B1008091B00081688093F6
:1008A000B0008091B10084608093B1000E94C416B2
:1008B00060E875E280E090E00C942B169E7F9093A8
:1008C0000501982F98703091040183FF91CF3E7FEE
:1008D00030930401211192CF5998992309F491CFB3
:1008E0005198282F22709091020181FD91CF9D7F18
:1008F00090930201982F90713091010184FF91CF64
:100900003D7F30930101211192CF5A98992309F428
:1009100091CF5298282F24709091020182FD91CF9F
:100920009E7F90930201982F907285FF91CF8091C6
:1009300001018E7F80930101211192CF5B98992351
:1009400009F491CF539890CF81E08093890248E0D9
:10095000F1CE089896CF80E05ADD81E058DD4091D5
:10096000F9025091FA02A1E0B3E0E1ECF3E020E0FB
:1009700030E00CC012968C91129790E00196280FEF
:10098000391F139683E0A13CB80731F08D919C91FB
:1009900011974817590770F33093D6042093D50464
:1009A0004091FB025091FC0220E030E00AC08281BD
:1009B00090E00196280F391F339694E0E138F9074B
:1009C00029F0808191814817590788F33093D80422
:1009D0002093D704279A80918E02813009F0C4CEEB
:1009E0002F9AC3CE40E050E063E088E092E00E949E
:1009F000E91543E050E066E373E080E090E00C949A
:100A0000D215CF93DF93C9E9D2E068A979A98AA961
:100A10009BA94EE050E00E94D2156CA97DA98EA939
:100A20009FA942E150E00E94D21568AD79AD8AAD30
:100A30009BAD46E150E00E94D2156CAD7DAD8EAD10
:100A40009FAD4AE150E00E94D2156091D9027091A9
:100A5000DA028091DB029091DC024EE150E00E94CC
:100A6000D2156091DD027091DE028091DF029091DB
:100A7000E00242E250E00E94D215C9EDD4E069E004
:100A800070E088810E94BF156AE070E089810E9451
:100A9000BF156BE070E080915C050E94BF1568E0B7
:100AA00070E08091DB040E94BF156CE070E08091E3
:100AB000F9020E94BF156DE070E08091FB020E9478
:100AC000BF1566E270E08091ED029091EE020E9407
:100AD000C31568E270E08091EF029091F0020E94ED
:100AE000C31580918702C1E06AE270E08C270E9402
:100AF000BF15809186026BE270E08C270E94BF15C3
:100B00006CE270E08091EB029091EC020E94C315C0
:100B10006EE270E08091E3020E94BF156FE270E028
:100B200080918A020E94BF1544E650E060E481E0B3
:100B300093E00E940A1644E251E060E481EC93E005
:100B40000E940A1619DD67E070E0DF91CF910C94E6
:100B5000BF1511980000000000000000809186027F
:100B6000882321F0489B02C082E00895119A00007A
:100B700000000000000089B1809581700895489BB5
:100B800014C011988AE000008150E9F7099888ECB8
:100B900000008150E9F7489B04C082E0099A119A4D
:100BA000089581E0099A119A089580E0099A119AAE
:100BB00008958091A1029091A20220916F002F7D53
:100BC00020936F0020919A0030919B0040916F001C
:100BD000406240936F004091F5025091F602782FE9
:100BE000692F8417950710F4742F652FE091BB02CD
:100BF000E1114DC02417350708F049C040916F003E
:100C00004F7D40936F009093F2028093F1023093F6
:100C10009B0020939A007093FD026093FE02209146
:100C2000D90430E08091B50290E02817390791F19E
:100C3000759AEE2331F181E090E090938B008093E0
:100C40008A008091030380938402109282021BBC6D
:100C500010928500109284008091DC049091DD0454
:100C6000909387008093860080918100897F809394
:100C700081008091810081608093810081E0809378
:100C8000BB0280916F00806280936F000895272FD0
:100C9000362FB4CF7598CDCF8091A3029091A40246
:100CA000209171002F7D2093710020919800309148
:100CB0009900409171004062409371004091F702A9
:100CC0005091F802782F692F8417950710F4742F2C
:100CD000652FE091BC02E11151C02417350708F0DF
:100CE0004DC0409171004F7D409371009093F4028C
:100CF0008093F30230939900209398007093FF0241
:100D0000609300032091DA0430E08091B60290E015
:100D100028173907B1F180910201806180930201A7
:100D2000EE2331F181E090E0909389008093880078
:100D30008091C30380938502109283021ABC1092A3
:100D400095001092940080911C0590911D05909340
:100D500097008093960080919100897F8093910005
:100D60008091910081608093910081E08093BC022A
:100D7000809171008062809371000895272F362F33
:100D8000B0CF809102018F7E80930201C9CF4F9234
:100D90005F927F928F929F92AF92BF92CF92DF929B
:100DA000EF92FF920F931F93CF93DF93282F30E0A2
:100DB000F901EE0FFF1FEB52FB4F00811181D901AA
:100DC000A756BD4F94969C919497992329F0A8011A
:100DD000440F551F040F151F5A96EC915A970E2E6B
:100DE000000CFF0BF7FDB5C09E2F5C967C90D901DF
:100DF0001496ED01CC0FDD1FCC0FDD1FC756DD4F64
:100E0000488159816A817B816F01CC0CDD1C0D2CDE
:100E1000000CEE08FF084C155D056E057F0508F017
:100E200075C0C882D982EA82FB82E09FE001E19F1F
:100E3000D00DF09FD00D112446015701B694A79410
:100E400097948794F901EE0FFF1FE750FD4F408004
:100E50005180B701A601983009F46FC06E01E12CF2
:100E6000F12C8C149D04AE04BF0410F475016401D0
:100E70004C195D096E097F09E901CC0FDD1FCC0F0C
:100E8000DD1F9E0127563D4FF9010081118122810E
:100E90003381F1E07F1609F454C0C157DD4F400F94
:100EA000511F621F731F488359836A837B83AA0F74
:100EB000BB1FA756BD4F4D925C929EB3811113C0CC
:100EC0009B7F9EBBF09ADF91CF911F910F91FF9076
:100ED000EF90DF90CF90BF90AF909F908F907F90DA
:100EE0005F904F9066CE977F9EBBF19ADF91CF9136
:100EF0001F910F91FF90EF90DF90CF90BF90AF9038
:100F00009F908F907F905F904F90C6CEE09FE001C2
:100F1000E19FD00DF09FD00D11244A015B01B694E2
:100F2000A79497948794F901EE0FFF1FE750FD4FA8
:100F300040805180983009F091CF487F98EF892206
:100F40008DCF70956095509541955F4F6F4F7F4F56
:100F5000A4CFF195E195F10947CF811106C08091A9
:100F6000BB02811101C087C9089580916F008F7DF8
:100F700080936F0080918100887F80938100109220
:100F8000B9021092BB0281E08093B10210929702E5
:100F9000F0980895811106C08091BC02811101C0B2
:100FA0009FC90895809171008F7D80937100809119
:100FB0009100887F809391001092BA021092BC0237
:100FC00081E08093B20210929802F1980895811105
:100FD00014C081E0C2DFA59881E08093B70210922F
:100FE000710010926F001092800088E18093810060
:100FF0001092900080939100089581E0CBDF809162
:1010000002018F7D8093020181E08093B802E7CFD7
:101010008F929F92AF92BF92EF92FF920F93CF93D6
:10102000DF93D82F7B010E946619C82F90918E0202
:10103000911137C0DF3409F458C010928C028D2F03
:101040000D2E000C990BAA0BBB0BFC01E554F1090A
:10105000EF32F10508F443C000918D0220E030E04A
:10106000A9016D2FC7010E94C817DA3409F098C38F
:101070008091E402811194C380918E02811190C30A
:10108000D0E0FE01E756FD4F808DC956DD4F80FF51
:1010900089C38881823009F483C381E08883C1E0F9
:1010A00052C04D2F0D2E000C550B660B770BFA011D
:1010B000E554F109EF32F10560F0FA01E154F1096C
:1010C000EA33F10548F68827EE58FF4F8F4F0C940E
:1010D000DC1B8827E455FF4F8F4F0C94DC1B8827BF
:1010E000E552FF4F8F4F0C94DC1B882309F470C32B
:1010F00080918C02833108F4DDC1F7018081805337
:1011000080938E0201E0811101C000E000938D0206
:10111000811194C3C0E020E030E0A901DFE40FC0FA
:10112000D0E0CC0FDD1FCC0FDD1FC752DD4F288173
:1011300039814A815B8100918D02C1E0D3E76D2F37
:10114000C7010E94C8178C2FDF91CF910F91FF909C
:10115000EF90BF90AF909F908F9008950FB7F89445
:10116000C7010E941E19D0E0CC0FDD1FCC0FDD1F80
:10117000C756DD4F688379838A839B830FBF0091B5
:101180008D02C1E020E030E0A901D5E4D8CF8FB7CF
:10119000F894D0E0CC0FDD1FCC0FDD1FC756DD4F1C
:1011A000288139814A815B818FBF00918D02C1E026
:1011B000DAE6C5CFD0E0C756DD4F2EA130E040E0E3
:1011C00050E000918D02C1E0D7E6B9CFD0E0C7561C
:1011D000DD4F8CA1813009F40BC120E030E08C8D13
:1011E000813009F4E4C288A1811101C0316080918D
:1011F000E402813009F4DDC28AA1811101C02061BD
:101200008E8D813009F4D7C240E050E000918D020C
:10121000C1E0D6E694CFC7010E941E192C2F30E002
:1012200040ECC49FF0011124E254FC4F8080918077
:10123000A12CB12CF901EE0FFF1FEF55FD4F462FEA
:10124000572FBC01481559056A057B0508F4BEC037
:1012500051834083F901E956FD4F8081823009F4C2
:10126000BCC0108200918D02C1E020E030E0A901F5
:10127000D9E465CFC7010E941E19D0E0FE01EE0F30
:10128000FF1FEE0FFF1FE755FD4F608371838283C1
:101290009383C956DD4F188200918D02C1E020E092
:1012A00030E0A901D8E44BCFD7018C91D0E0FE010A
:1012B000E756FD4F90ED980F908F91E011962C918D
:1012C000203309F488C0948FC956DD4F188292A14B
:1012D00091110AC090918902992331F08153823093
:1012E00008F4C7C281E084A300918D02C1E020E030
:1012F00030E0A901D7E423CFD0E0CC0FDD1FCC0F25
:10130000DD1FCF53DD4F288139814A815B810091F8
:101310008D02C1E0D5E613CFD0E0CC0FDD1FCC0F9E
:10132000DD1FC753DD4F288139814A815B810091E0
:101330008D02C1E0D1E603CFC7010E940619809358
:10134000B30000918D02C1E020E030E0A901D6E5B4
:10135000F6CED7014C9140536C2F83E00E94F114DC
:1013600000918D02C1E020E030E0A901D0E5E7CE98
:1013700081E0C1111BC0F1DD0E94370100918D0297
:10138000C1E020E030E0A901DCE4D9CE80E0C11169
:1013900020C0E3DDD0E0C956DD4F188200918D02F8
:1013A000C1E020E030E0A901DBE4C9CEF3DD8091AB
:1013B00002018062809302011092B80200918D02B6
:1013C000C1E020E030E0A901DCE4B9CEB501A40120
:1013D0003FCFE0DDDFCF90E076CFC1111FC2E9DB68
:1013E00000918D02C1E020E030E0A901D9E4A7CE50
:1013F00020E034E0F4CE00918D02C1E024E030E042
:1014000040E050E0D0E09BCEEC2FF0E0EE0FFF1F6D
:10141000EE0FFF1FEF52FD4F20813181428153813A
:1014200000918D02C1E08BCEC13009F4E6C120915C
:10143000860230E040E050E000918D02C1E07FCEB6
:101440008C2F90E0FC01EE0FFF1FE351FD4F208138
:1014500031815901AA0CBB1C880F991F880F991F55
:10146000FC01EF52FD4FD50111962081318142815F
:1014700053810E94F31B950140E050E00E94BA1B8B
:1014800000918D02C1E05BCED7018C91805309F0B1
:1014900094C100918D02C1E020E030E040E850E0CE
:1014A0004ECE8C2F94DD00918D02C1E020E030E023
:1014B000A90145CED7019C919153933008F4E2C124
:1014C00010928C0200918D02C1E020E030E0A90171
:1014D000D0E035CEEC2FF0E0EE0FFF1FE750FD4FD0
:1014E0002081318140E050E000918D02C1E027CEA3
:1014F0004C2F50E0FA01EE57FD4F6081862F90E0AF
:101500009C01220F331F280F391F70EC749FC001FC
:10151000759F900D1124820F931F87569D4FDC01FC
:10152000A859BF4FCC9111967C91119712962C2FF0
:10153000372F4C9150E081E0860F803408F0B1C124
:101540008083D2CFC13009F4EDC12091E30271CF85
:10155000CC2309F4A8C100918D02C1E020E030E065
:10156000A901D0E0ECCDC7010E941E19EC2FF0E0DC
:10157000EE0FFF1FEE0FFF1FE752FD4F60837183D9
:101580008283938300918D02C1E020E030E0A901C5
:10159000D6CDC7010E940619EC2FF0E0EE0FFF1F19
:1015A000E750FD4F90E09183808300918D02C1E070
:1015B00020E030E0A901C3CDC7010E940619EC2F3D
:1015C000F0E0EE57FD4F808300918D02C1E0803442
:1015D00008F46CCF23E030E040E050E0D0E0AFCD45
:1015E000C7010E941E19AC2FB0E0FD01EE57FD4F60
:1015F0009081292F30E0A901440F551F420F531F3E
:10160000C0ECCA9F9001CB9F300D1124240F351FD1
:1016100027563D4FD901A859BF4F11967C936E9321
:1016200012968C9381E0890F8083803408F43BCF3D
:10163000108200918D02C1E020E030E0A9017FCD51
:10164000923009F48EC1933009F483C1913009F0CE
:101650002ACF81E0F7019081903309F4B3C10E9451
:10166000EA0281119EC100918D02C1E0B3CFC13069
:1016700009F450C120915C05DCCEEC2FF0E0E7527C
:10168000FB4F2081D6CEEC2FF0E0EE0FFF1FE35191
:10169000FD4F26CFC701C13009F417C10E940619BA
:1016A00080935C0500918D02C1E020E030E0A9014B
:1016B00046CDEC2FF0E0E752FB4F81E0D7019C9143
:1016C000903309F415C1808300918D02C1E020E0C0
:1016D00030E0A90134CDC7010E941E19EC2FF0E0C3
:1016E000EE0FFF1FEE0FFF1FEF52FD4F6083718360
:1016F0008283938300918D02C1E020E030E0A90154
:101700001ECDC7010E941E19EC2FF0E0EE0FFF1F47
:10171000EE0FFF1FE753FD4F608371838283938336
:1017200000918D02C1E020E030E0A90108CDC701A1
:10173000C13009F4BBC00E94061991E0811101C0BB
:1017400090E09093860200918D02C1E020E030E0AD
:10175000A901F5CCC7010E941E19EC2FF0E0EE0F95
:10176000FF1FE351FD4F7183608300918D02C1E043
:1017700020E030E0A901E3CCC701C13009F4BAC0D0
:101780000E9406199FEF980F933108F06CCF809359
:10179000E30200918D02C1E020E030E0A901CFCC4E
:1017A000C1E0D1CC81E0888380A3C1E0CCCC3260A1
:1017B0001ACD206221CD216027CD00918D02C1E09C
:1017C000813009F0CBCE2CE134E040E050E0B7CCE2
:1017D00080918A02882359F11098D7018C91803327
:1017E00009F45BC0089A10928C0200918D02C1E04E
:1017F00020E030E0A901DFE4A2CC80918702282F0D
:1018000030E040E050E09091DB04983080F1C82750
:10181000C093890200918D02C1E091CC3DDA009124
:101820008D02C1E020E030E0A901D9E488CC089A1B
:10183000F7018081803399F1109AD5CF81E08DDB5B
:101840000E94370181E0A6DB8091020180628093D3
:1018500002011092B8021092970210929802009121
:101860008D02C1E020E030E0A901DFE468CCC0E0F7
:10187000CFCF14A200918D02C1E020E030E0A90199
:10188000D7E45DCC8F5F80938C0200918D02C1E024
:1018900020E030E0A901D0E052CC0898A4CF109805
:1018A000A2CF108221CE20918A02C3CD0E940619B8
:1018B00091E0811101C090E09093870200918D0228
:1018C000C1E020E030E0A9013ACC0E9406198093E3
:1018D000DB048830D8F1809187028C278170809357
:1018E000890200918D02C1E020E030E0A90127CCFF
:1018F00080E0E9CE0E941E1961157105F1E08F07A5
:101900009105C8F000918D0223E030E040E050E006
:10191000D0E015CC2091DB0430E040E050E00091B5
:101920008D020DCC2091EB023091EC0240E050E0B2
:1019300000918D0204CC7093EC026093EB02009155
:101940008D02C1E020E030E0A901F9CB80E090E019
:10195000C5CF48D800918D02C1E020E030E0A90158
:10196000EECB4FD800918D02C1E020E030E0A9011C
:10197000E6CBC11113C0992309F42ACF81E0F70106
:101980009081903349F080938A0200918D02C1E0EA
:1019900020E030E0A901D3CB80E0F5CF9111ADCBB1
:1019A000A7CB0E94DD0281117ECD0E94BC0267E0C0
:1019B00070E00E94BF1500918D02C1E020E030E090
:1019C000A901BDCB80E04BCECF93DF93CDB7DEB77F
:1019D00060970FB6F894DEBF0FBECDBF78940E941B
:1019E0004D03AA24AA94BB24BA94812C312C10E074
:1019F000C12CE12CF12CDD24D39499249A94412C10
:101A0000512C80E8682E712C0299F2C0D092E40229
:101A10008091BB028111CFC18091BC028111C8C1EC
:101A20008FEFE81AF80A80918B028111EBC0E11464
:101A3000F10409F003C180918E02882309F40BC2DE
:101A4000809102028111FEC085B1805885B997D876
:101A5000082F8091E202081709F446C045E062E0D1
:101A6000802FBFD780918902882319F0023009F4B2
:101A700053C3809100029091B502913009F408C3DC
:101A8000D092B3021092BD029091B602913009F447
:101A9000FCC2D092B4021092BE02382F31709091E5
:101AA000050180FF95C2916090930501282F227057
:101AB0009091020181FF88C2926090930201982F59
:101AC000947082FF7BC28091020181608093020149
:101AD000332309F471C2599A222309F46BC25A9A2A
:101AE000992309F465C25B9A8091E40281118CCF3D
:101AF000189B98C01B9BB2C20FEF80E09FB7F89471
:101B000020919A0030919B009FBF4091BB024423DB
:101B100059F09091B502891739F06091F5027091F2
:101B2000F6022617370728F10F3F09F4A9C2E02F64
:101B3000EE0FFF0BEB51FD4F208131813093A2025C
:101B40002093A1028093B5029091BD02992309F4DC
:101B500027C29091BF02813009F426C29093B3024C
:101B60000F3F29F48091E202823009F4CFC221D8DC
:101B7000B02E199B0EC21A9B6CC20FEF80E09FB76C
:101B8000F89420919800309199009FBF9091BC02E9
:101B9000992389F09091B602891741F04091F7029C
:101BA0005091F8022417350708F42ECF0F3F31F477
:101BB000AA24AA9429CF0F3F09F40DC32091E9026A
:101BC0003091EA023093A4022093A3028093B602DC
:101BD0009091BE02992309F447C29091C0028130CE
:101BE00009F446C29093B40257D8A02E029B0ECFA0
:101BF0001092E4028FEFE81AF80A80918B02882392
:101C000009F415CF8091020281111CC0E114F10486
:101C100009F41ACF8091E4028111F6CEE110F4CEDE
:101C2000189968CF81E0B81609F4A3CF81E09091AC
:101C3000E102913009F080E001E060CF8091020282
:101C4000882341F31E3F09F4AFC00E940817882380
:101C5000F1F085B1805885B90E941317C82E4091C4
:101C60008D026C2DCE0101960E94B718182F882383
:101C700071F00CF4EBC0BE016F5F7F4FC9D9082F24
:101C8000CE0101960E946717002309F4A5C1E11453
:101C9000F10431F480918E02813009F478C12F98DB
:101CA0008091E402811146C080918B02811142C073
:101CB000E11040C0189BE2C103B103FB002700F90B
:101CC00001950B1551F08091B502811105C08091ED
:101CD0009702823009F484C2B02E199BCDC183B122
:101CE00082FB882780F9082F01958091BA02811123
:101CF00021C00A15F9F081E0013009F080E09091EF
:101D0000BC029111CEC10F3F09F484C22091E902B7
:101D10003091EA023093A4022093A3028093B6028A
:101D2000013009F4A2C2D092B4020E944C06A02E47
:101D30008824839480919702813009F43FC0809178
:101D40009802813009F060CE9091BC0291115CCE76
:101D50002091B20290918902992309F45DC19FEF0D
:101D6000920F923008F419C2909101028091C00242
:101D70003091B602313009F42AC28093B402D09275
:101D8000BE0290FD8CC1599893FDBEC1519A91FF3E
:101D9000B9C15A9A94FDB4C1529A92FFAFC15B9AED
:101DA00095FDAAC1539A41C185B1805885B957CFD5
:101DB00081E0F0D835CE81E0D0D82ECE8091BB0224
:101DC0008111BDCF9091B10280918902882309F4DD
:101DD00012C18FEF890F823008F4EAC180910102AD
:101DE0002091BF023091B502313009F4ECC120934B
:101DF000B302D092BD022091050180FD4CC12E7F1F
:101E0000209305012091040183FD6CC12160209382
:101E100004012091020181FF61C12260209302012F
:101E20002091010184FD56C122602093010120917F
:101E3000020182FF4BC121602093020185FD56C142
:101E400080910101816080930101DEC0CE01019685
:101E50000E9467171CCF0E94A905082F882309F448
:101E6000EFCD81E07AD881E095D88FB7F894409291
:101E7000990250929A0260929B0270929C02409248
:101E80009D0250929E0260929F027092A0028FBFAC
:101E900049D7D0928B02023009F4C9C110920202D4
:101EA000119AE0918802F0E0E050FE4F8081282FE7
:101EB00021709091050180FD05C19E7F90930501E1
:101EC000982F98703091040183FD4DC1316030939B
:101ED0000401222309F445C1599A911140C1519A34
:101EE000282F22709091020181FF35C1926090935A
:101EF0000201982F90713091010184FD4AC1326036
:101F000030930101222309F442C15A9A91113DC133
:101F1000529A282F24709091020182FF32C1916061
:101F200090930201982F907285FD25C18091010147
:101F3000816080930101222309F41BC15B9A9111F6
:101F400016C1539A45E062E080E04BD51092BD0285
:101F50001092BE0280E03BD881E039D8D092B10225
:101F6000D092B2021092B502D092B3021092B60291
:101F70008091ED029091EE029093A2028093A102D3
:101F8000D0929702AA24AA94BB24BA9459CD2F9A2E
:101F900087CE81E0A81609F437CD01E081E0EFCDCE
:101FA00091E0813009F0DACD91959093B302D8CDCC
:101FB0005B989ACD5A9894CD59988ECD8091020114
:101FC0008E7F8093020184CD9D7F9093020177CD17
:101FD0009E7F909305016ACD66D79BE088E10FB69E
:101FE000F894A895809360000FBE9093600080E005
:101FF00090E00E94211C8091B502813009F4A8C0B4
:10200000D092B3021092BD0290FF17C00E94D90572
:1020100082E08093970293CE9091B602913009F4BA
:1020200094C08093B4021092BE0220FF0CC00E94A4
:102030004C0682E080939802E7CC80E00E94C706BD
:10204000109297027CCE81E00E94C70610929802FF
:10205000DBCCAA2009F4D8CC00E090CDBB2009F459
:1020600088CD00E080E04ACD91E0813009F0BACD22
:1020700091959093B402B8CD01E037CE01E021CE26
:102080002091ED023091EE0259CD9092B40203CD31
:102090009092B302F7CC216020930501B3CE599AF8
:1020A00073CE2091B602821709F42DCE10929802B9
:1020B00080919702813009F0A7CC8091BB028111F9
:1020C000A3CC80CE916090930501FACE2E7F209311
:1020D0000201B4CE2D7F20930101A9CE2D7F209344
:1020E00002019ECE2E7F2093040193CE80910101A8
:1020F0008E7F8093010188CF539897CF5B9850CE05
:1021000052984BCE5A9846CE519841CE442309F46A
:1021100089C0BB24BA942DCD809101029091BF0259
:102120002091B502213009F497C09093B302D09268
:10213000BD029091C0022091B602213009F488C0FE
:102140009093B402D092BE02A8CC9092B4026BCF0E
:102150009092B30257CF9D7F90930201CACE5198BF
:10216000BFCE5998BACE3E7F30930401B2CE539879
:10217000E9CE5B98E4CE809101018E7F80930101CE
:10218000DACE9E7F90930201CDCE5298C2CE5A985D
:10219000BDCE3D7F30930101B5CE909100023091CC
:1021A000B6023130A1F18093B4021092BE02E9CDA3
:1021B000809100022091B502213031F1D092B3021A
:1021C0001092BD0218CE21952093B30212CE8195B4
:1021D0008093B402D4CD0E947001AA24AA9414CC96
:1021E0000F3F09F43DC0E02FEE0FFF0BEB51FD4F09
:1021F000808191819093A2028093A1020E94D905CF
:10220000B02E3324339469CD9092B302D9CF9092FB
:10221000B402CBCF882061F1992369F1AA24AA9452
:10222000812C88CD0E943B01BB24BA94A2CCD092D1
:10223000020292D500918D0224E030E040E050E0AF
:1022400060E0CE010C96A4D6CE010C9640D6F8CB19
:1022500091959093B40276CF91959093B30267CF06
:1022600031100FC0BB24BA9438CD9092B4025DCD2A
:10227000AA24AA945FCD0E947001AA24AA94812C5A
:1022800059CD8091ED029091EE029093A20280933D
:10229000A1020E94D905BB24BA94312C1ECD1F92F5
:1022A0000F920FB60F9211240BB60F920F931F933C
:1022B0002F933F934F935F936F937F938F939F934E
:1022C000EF93FF938091880090918900019709F026
:1022D0005FC08AB5E82FEE73F0E0E45EFA4F20812C
:1022E000318130939700209396008F5F8ABD809153
:1022F00098009091990090938900809388001E9B8C
:102300005EC02E9800919D0210919E0220919F0226
:102310003091A0024091B402042E000C550B660BC4
:10232000770B400F511F621F731F40939D02509304
:102330009E0260939F027093A002F19B10C0F399DC
:102340000EC0009193021091940220919502309159
:102350009602401751076207730709F486C020915F
:10236000FF023091000328173907B0F4F19B03C036
:102370001092BA02F1981092BC02809171008F7D88
:102380008093710080919100887F8093910004C0B8
:102390009093890080938800FF91EF919F918F9196
:1023A0007F916F915F914F913F912F911F910F916D
:1023B0000F900BBE0F900FBE0F901F9018952E9A86
:1023C00020918502211123C02091F3023091F40263
:1023D0002817390700F5809183028F3398F48F5FB7
:1023E0008093830290E0AC01440F551F840F951F2A
:1023F00087569D4FFC01E85DFE4F408151812417B7
:10240000350718F13093990020939800C5CF2150DB
:1024100020938502C1CF8217930728F5809183020C
:10242000882381F381508093830290E0AC01440FB4
:10243000551F840F951F87569D4FFC01E85DFE4F89
:102440004081518142175307E8F62091BE022223B2
:10245000D9F032968081982F990F890F8E5F8093E3
:1024600085029A01CFCF9C01CDCFF39A2091FF0234
:1024700030910003A9014F5F5F4F5093F4024093E6
:10248000F302109285026FCFFC01E65DFE4F808162
:10249000809385029A01B6CF1F920F920FB60F92CA
:1024A00011240BB60F920F931F932F933F934F93CB
:1024B0005F936F937F938F939F93EF93FF9380919D
:1024C0008A0090918B00019709F05FC08BB5E82FCF
:1024D000EE73F0E0E452FB4F2081318130938700AE
:1024E000209386008F5F8BBD80919A0090919B0016
:1024F00090938B0080938A00639B5EC073980091D9
:10250000990210919A0220919B0230919C02409175
:10251000B302042E000C550B660B770B400F511FB6
:10252000621F731F4093990250939A0260939B021B
:1025300070939C02F09B10C0F2990EC000918F0224
:102540001091900220919102309192024017510710
:102550006207730709F486C02091FD023091FE02E4
:1025600028173907B0F4F09B03C01092B902F09815
:102570001092BB0280916F008F7D80936F008091DD
:102580008100887F8093810004C090938B008093AA
:102590008A00FF91EF919F918F917F916F915F9151
:1025A0004F913F912F911F910F910F900BBE0F9064
:1025B0000FBE0F901F901895739A209184022111DD
:1025C00023C02091F1023091F2022817390700F55B
:1025D000809182028F3398F48F5F8093820290E023
:1025E000AC01440F551F840F951F87569D4FFC016A
:1025F000E859FF4F408151812417350718F1309376
:102600009B0020939A00C5CF215020938402C1CF14
:102610008217930728F580918202882381F38150E5
:102620008093820290E0AC01440F551F840F951FE8
:1026300087569D4FFC01E859FF4F40815181421759
:102640005307E8F62091BD022223D9F0329680810B
:10265000982F990F890F8E5F809384029A01CFCFB4
:102660009C01CDCFF29A2091FD023091FE02A9018A
:102670004F5F5F4F5093F2024093F1021092840239
:102680006FCFFC01E659FF4F8081809384029A014D
:10269000B6CFCF93DF9300D01F921F92CDB7DEB796
:1026A0008330E1F18091ED029091EE0244E1489F88
:1026B000F001499FF00D11242091E30230E0B901AF
:1026C0006C5E7F4FCF010E94A61B7093E602609361
:1026D000E50264E170E0621B730BCF010E94A61B50
:1026E0007093E8026093E7021092E1026091EF02BA
:1026F0007091F002469FC001479F900D1124B901CF
:102700000E94A61B7093EA026093E9020F900F905B
:102710000F900F900F90DF91CF91089585E0E3E047
:10272000F2E0DE01119601900D928A95E1F74530B5
:1027300068F7611128C02091ED023091EE02220F5E
:10274000331F220F331F220F331FE1E0F0E0EC0FA5
:10275000FD1FE40FF11DE081F0E0BF01685F7F4FD6
:10276000C901F4D77093E6026093E50268E070E077
:102770006E1B7F0BC901EAD77093E8026093E702F2
:102780001092E102C3CF613009F0C0CF8091EF0217
:102790009091F002880F991F880F991F880F991F39
:1027A000E1E0F0E0EC0FFD1FE40FF11D608170E04F
:1027B000CDD77093EA026093E902A8CF3F924F927F
:1027C0005F926F927F928F929F92AF92BF92CF92C1
:1027D000DF92EF92FF920F931F93CF93DF9300D07E
:1027E0001F92CDB7DEB76B017C01442E8EE090E0E6
:1027F0006ED16093C9027093CA028093CB0290930A
:10280000CC0282E190E063D16093CD027093CE025E
:102810008093CF029093D00286E190E058D16093EC
:10282000D1027093D2028093D3029093D4028AE1B2
:1028300090E04DD16093D5027093D6028093D70279
:102840009093D8028EE190E042D16093D9027093C8
:10285000DA028093DB029093DC0282E290E037D1CF
:102860006093DD027093DE028093DF029093E002BA
:1028700086E290E01DD19093EE028093ED0288E213
:1028800090E016D19093F0028093EF028CE090E0FC
:102890000ED190E09093FA028093F9028DE090E0DF
:1028A00006D190E09093FC028093FB028EE290E0D0
:1028B000FED08093E3028CE290E0FAD09093EC0299
:1028C0008093EB021092E40244E650E060E481E081
:1028D00093E034D144E251E060E481EC93E02ED106
:1028E000E9E9F2E06DEE72E021E033E045EF52E01D
:1028F0000DEF12E081EF682E82E0782EFA83E983F3
:10290000FC83EB8392E0592E33243394812C912C59
:10291000A0E8AA2EB12C148E328E14A212A210A2FC
:10292000168EAB81BC818D929D92AD92BC92139715
:10293000DB018D919D91BD01A981BA8119969C936E
:102940008E931897308EAB81BC8150961D921D924C
:102950001D921C9253979896CD92DD92ED92FC9227
:102960009B9746A2D9018D919C91DA018D939D93FD
:10297000AD01D8018D939D938D010196D3018D9367
:102980009D933D01A981BA811D969C938E931C97BE
:102990005A9431968B819C8104969C838B831296EA
:1029A000BA83A98320543F4F5110B5CF1092E20251
:1029B00045E062E080E00F900F900F900F90DF9164
:1029C000CF911F910F91FF90EF90DF90CF90BF902C
:1029D000AF909F908F907F906F905F904F903F90BF
:1029E00058CE582F8093E202823019F08130C9F01E
:1029F00050CE8091F9029091FA029093E602809372
:102A0000E5029093E8028093E70281E08093E1027F
:102A10008091FB029091FC029093EA028093E9027C
:102A20000895E091ED02F091EE029F01ABEABAEA5F
:102A3000CBD6969587959093E6028093E502F09326
:102A4000E802E093E7025093E1028091EF02909157
:102A5000F002969587959093EA028093E902089593
:102A6000EFE0F2E02AE690E005C09F5F9732E9F0E0
:102A7000208133968213F9CF892F90E0FC01EE0F6D
:102A8000FF1F8E0F9F1FFC01E45FFD4F611105C00A
:102A90008281411105C08F70089581814423D9F34B
:102AA000859585958595859508958FEF0895B3C68D
:102AB0001F93CF93DF93EC01AED6182FCE01019672
:102AC000AAD6982F812FDF91CF911F910895CF9291
:102AD000DF92EF92FF92CF93DF93EC01E9DF6C017D
:102AE000CE010296E5DF7C01C701B601DF91CF91EF
:102AF000FF90EF90DF90CF900895EF92FF920F93A9
:102B00001F93CF93DF93662391F0EA018C0161500C
:102B10007A01E60EF11C8FEFE81AF80ACE017BD697
:102B2000F80181938F012196CE15DF05B9F7DF916A
:102B3000CF911F910F91FF90EF900895EF92FF9228
:102B40000F931F93CF93DF93E62E8A01662381F0C4
:102B5000EC01F12CC801ACDF99838883C80102968F
:102B6000A7DF8A830D5F1F4FF3942396EF10F2CFF8
:102B7000DF91CF911F910F91FF90EF900895282F33
:102B8000CB01622F50C61F93CF93DF93192FEB0118
:102B9000682FCE0148D6612FCE010196DF91CF91EB
:102BA0001F9141C6CF92DF92EF92FF92CF93DF93B6
:102BB0006B017C01EA01BA01C601E5DFBE016E5F6F
:102BC0007F4FC701DF91CF91FF90EF90DF90CF90C3
:102BD000DACFEF92FF920F931F93CF93DF93662389
:102BE00091F0EC016150E62EF12C8FEFE81AF80A13
:102BF000EC0EFD1E8A016991C80115D60F5F1F4FAB
:102C0000CE15DF05C1F7DF91CF911F910F91FF9096
:102C1000EF900895EF92FF920F931F93CF93DF935E
:102C2000E62E8A01662381F0EC01F12CB80188813F
:102C30009981A9DF6A81C8010296F5D50D5F1F4F02
:102C4000F3942396EF10F2CFDF91CF911F910F9164
:102C5000FF90EF900895CF92DF92EF92FF92CF9383
:102C6000DF936B017C0182E08093C00060E079E03B
:102C70008DE390E0A70196017DD5DA01C9010197A6
:102C8000A109B109AC01BD017695679557954795A6
:102C9000842FC52F90E0D92F9E01207F3327232B2F
:102CA000B1F01092C00060E874E88EE190E0A701F6
:102CB000960160D5DA01C9010197A109B109AC01FA
:102CC000BD017695679557954795CA01C92FCF7075
:102CD000C093C5008093C4008FB7F8941092C404C9
:102CE0001092C5041092A2041092A3048FBF809189
:102CF000C10080618093C1008091C1008860809391
:102D0000C1008091C10080688093C1008091C100A2
:102D10008F7D8093C100DF91CF91FF90EF90DF9086
:102D2000CF900895E1ECF0E080818F7E80838081F8
:102D3000877F808380818F77808380818F7D808370
:102D40008FB7F894E4EAF4E010A211A2E2E8F4E00C
:102D500010A211A28FBF0895219A299A23982B9A25
:102D6000229A2A9A209A289A119A8FB7F894E4EA1C
:102D7000F4E010A211A2E2E8F4E010A211A28FBFC9
:102D800081E08093810408952198299A23982B9AB1
:102D900022982A9A2098289A109281048FB7F89442
:102DA000E4EAF4E010A211A2E2E8F4E010A211A219
:102DB0008FBF089598E008C000002A98299A880FCC
:102DC0001B998F5F915029F0299887FFF5CF2A9A98
:102DD000F5CF08959091A3048091A204981709F06B
:102DE00048990895289881E8E5DF489BFECF80E860
:102DF000E1DF87FD0BC0E091A204F0E0EE57FB4F4E
:102E000080838091A2048F5F8093A204289A089502
:102E1000809181048111DEDF8091A2049091A3044E
:102E2000891B8F7108959091A3048091A204981733
:102E300051F0E92FF0E0EE57FB4F80819F5F9F71CB
:102E40009093A30408958FEF08959091C10093FF8C
:102E500016C09091C4049F5F9F712091C504921782
:102E6000C1F0E091C404F0E0EC55FB4F80839093F7
:102E7000C4048091C10080628093C1000895909144
:102E80008104911101C0089528988F7793DF289AC3
:102E900008952091C10020622093C1002091C504B3
:102EA0009217E1F3DECF8091C10083FF0FC09091B4
:102EB000C4048091C504981749F08091C1008062D4
:102EC0008093C1008091C5049813FCCF0895CF93DF
:102ED000DF93EC018881882329F02196B6DF899160
:102EE0008111FCCFDF91CF9108952F932FB72F93AE
:102EF0009F938F93EF93FF932091C6008091A2043C
:102F00008F5F8F719091A304891741F0E091A20423
:102F1000F0E0EE57FB4F20838093A204FF91EF91E6
:102F20008F919F912F912FBF2F9118958F938FB7CE
:102F30008F939F93EF93FF938091C5049091C40466
:102F4000891306C08091C1008F7D8093C1000BC0A2
:102F5000E82FF0E0EC55FB4F90818F5F8F718093ED
:102F6000C5049093C600FF91EF919F918F918FBF01
:102F70008F9118951092D4041092C8042BE0E9ECBC
:102F8000F4E0DF011D922A95E9F71092C70416CCF0
:102F9000CF92DF92EF92FF920F93CF93DF93EC01EA
:102FA000862F69017A0161111CC081E2888301309A
:102FB00009F47FC080E389838C2D8F708A3010F1F3
:102FC0008F5B8A83E2E0F0E0EC0FFD1F8DE08183F0
:102FD0001282DF91CF910F91FF90EF90DF90CF9011
:102FE0000895402F60E03CDD87FDDFCF9DE39883AF
:102FF000823069F08330A9F0863059F1E82F880FCC
:10300000FF0BE2CF805D8A83E2E0F0E0DDCF8C2D24
:1030100082958F708A3018F08F5B8983CDCF805D69
:10302000CACF8D2D8F708A3008F44EC08F5B898394
:103030008C2D82958F708A3008F443C08F5B8A8311
:103040008C2D8F708A30C0F18F5B8B83E3E0F0E0D2
:10305000BBCFC701AA27BB27282F22952F702A3064
:1030600008F441C02F5B2D838F708A30C8F18F5BCD
:103070008E83BB27AF2D9E2D8D2D282F22952F704F
:103080002A3058F12F5B2B838F708A3018F18F5BB9
:103090008C838C2D82958F708A30C8F08F5B8983EA
:1030A0008C2D8F708A3010F5805D8A83E6E0F0E029
:1030B0008BCFE0E0F0E088CF805D8B83E3E0F0E051
:1030C00083CF805D8A83BCCF805D8983B1CF805DF3
:1030D0008983E6CF805D8C83DCCF205D2B83D4CFCA
:1030E000805D8E83C6CF205D2D83BECF8F5B8A83AC
:1030F000E6E0F0E069CF0F931F93CF932091C904CE
:103100002093C6049091CA0491539093C7049330BE
:1031100028F083E0CF911F910F9108958B01C82F64
:1031200061E0822F9DDC4DEF4C0F082E000C990BB7
:10313000242F30E08217930729F081E0CF911F916F
:103140000F910895442369F0EBECF4E0D8018CEF83
:103150008C0F90E084539B4F41914D93E817F907F2
:10316000D9F7F801E20FF31F10828FEFD3CFCF937F
:10317000DF93EC019091D4049923A1F06A33E1F03C
:10318000E091C80481E08E0F8093C804F0E0E7531B
:10319000FB4F60836D3011F18B30E9F080E0DF91FF
:1031A000CF9108956A33D1F71092C80481E08093DB
:1031B000D4041092C904F2CF93E38EEF21E2288366
:1031C00020E329839A831B829DE09C831092D40480
:1031D000DF91CF91089591E38FEFF0CFBE018BDFA8
:1031E000982F8F3F59F081E2888380E389839F7015
:1031F0009A3048F09F5B9A838FEFE5CF1092D4040A
:103200008091C604CCCF905D8FEFDCCFFC01918123
:103210009A3354F09154892F8F7090819A334CF4E3
:103220009F709295892B0895892F8F7090819A3382
:10323000BCF391549F709295892B0895FC01618194
:103240006A3324F16154962F9F7060816A331CF1B8
:1032500061546F706295692B73817A3314F17154E4
:10326000972F9F7072817A330CF171547F70729531
:10327000792B85818A3304F181548F7094819A333C
:10328000FCF49F709295892B90E00895962F9F7083
:1032900060816A33ECF66F706295692B73817A33C3
:1032A000F4F6972F9F7072817A33FCF67F707295D7
:1032B000792B85818A3304F78F7094819A330CF3CC
:1032C00091549F709295892B90E008958091C70446
:1032D00008955058BB27AA270ED084C175D130F06D
:1032E0007AD120F031F49F3F11F41EF46AC10EF43C
:1032F000E095E7FB37C1E92F86D180F3BA17620763
:1033000073078407950718F071F49EF5B5C10EF4A4
:10331000E0950B2EBA2FA02D0B01B90190010C01E5
:10332000CA01A0011124FF27591B99F0593F50F4FD
:10333000503E68F11A16F040A22F232F342F442755
:10334000585FF3CF469537952795A795F04053954D
:10335000C9F77EF41F16BA0B620B730B840BBAF01D
:103360009150A1F0FF0FBB1F661F771F881FC2F788
:103370000EC0BA0F621F731F841F48F4879577959C
:103380006795B795F7959E3F08F0B3CF9395880F53
:1033900008F09927EE0F97958795089556D180F0FC
:1033A0009F3740F491110EF468C160E070E080E84E
:1033B0009FE3089526F01B16611D711D811DD8C065
:1033C000F2C00CD00FC107D140F0FED030F021F494
:1033D0005F3F19F0C7C0511150C1F3C014D198F329
:1033E0009923C9F35523B1F3951B550BBB27AA2786
:1033F00062177307840738F09F5F5F4F220F331FF8
:10340000441FAA1FA9F333D00E2E3AF0E0E830D0C3
:1034100091505040E695001CCAF729D0FE2F27D0C6
:10342000660F771F881FBB1F261737074807AB0794
:10343000B0E809F0BB0B802DBF01FF2793585F4F09
:103440002AF09E3F510568F08DC017C15F3FECF335
:10345000983EDCF3869577956795B795F7959F5FCE
:10346000C9F7880F911D9695879597F90895E1E022
:10347000660F771F881FBB1F621773078407BA0781
:1034800020F0621B730B840BBA0BEE1F88F7E095DC
:103490000895C1D088F09F5790F0B92F9927B75160
:1034A000A0F0D1F0660F771F881F991F1AF0BA9508
:1034B000C9F712C0B13081F0DFD0B1E00895DCC0AF
:1034C000672F782F8827B85F39F0B93FCCF38695FE
:1034D00077956795B395D9F73EF49095809570955B
:1034E00061957F4F8F4F9F4F0895E89409C097FBD8
:1034F0003EF490958095709561957F4F8F4F9F4FCB
:103500009923A9F0F92F96E9BB279395F69587950E
:1035100077956795B795F111F8CFFAF4BB0F11F4D1
:1035200060FF1BC06F5F7F4F8F4F9F4F16C0882378
:1035300011F096E911C0772321F09EE8872F762FAE
:1035400005C0662371F096E8862F70E060E02AF0EF
:103550009A95660F771F881FDAF7880F96958795DB
:1035600097F9089597F99F6780E870E060E0089503
:10357000882371F4772321F09850872B762F07C08A
:10358000662311F499270DC09051862B70E060E0FE
:103590002AF09A95660F771F881FDAF7880F96959D
:1035A000879597F908959F3F31F0915020F48795C2
:1035B00077956795B795880F911D9695879597F99B
:1035C00008959FEF80EC089500240A9416161706BC
:1035D00018060906089500240A9412161306140604
:1035E00005060895092E0394000C11F4882352F067
:1035F000BB0F40F4BF2B11F460FF04C06F5F7F4F1F
:103600008F4F9F4F089557FD9058440F551F59F005
:103610005F3F71F04795880F97FB991F61F09F3FBF
:1036200079F087950895121613061406551FF2CFE8
:103630004695F1DF08C0161617061806991FF1CF38
:1036400086957105610508940895E5DFA0F0BEE751
:10365000B91788F4BB279F3860F41616B11D672F81
:10366000782F8827985FF7CF869577956795B11D56
:1036700093959639C8F30895E894BB276627772772
:10368000CB0197F908950BD0ADCF9EDF28F0A3DFD3
:1036900018F0952309F066CF94CF1124EECFB3DF55
:1036A000A0F3959FD1F3950F50E0551F629FF00155
:1036B000729FBB27F00DB11D639FAA27F00DB11DAE
:1036C000AA1F649F6627B00DA11D661F829F222737
:1036D000B00DA11D621F739FB00DA11D621F839FBE
:1036E000A00D611D221F749F3327A00D611D231F94
:1036F000849F600D211D822F762F6A2F11249F57E2
:1037000050408AF0E1F088234AF0EE0FFF1FBB1F04
:10371000661F771F881F91505040A9F79E3F5105A3
:1037200070F020CFAACF5F3FECF3983EDCF3869594
:1037300077956795B795F795E7959F5FC1F7FE2B4E
:10374000880F911D9695879597F90895AA1BBB1B25
:1037500051E107C0AA1FBB1FA617B70710F0A61B91
:10376000B70B881F991F5A95A9F780959095BC01B2
:10377000CD010895A1E21A2EAA1BBB1BFD010DC0AD
:10378000AA1FBB1FEE1FFF1FA217B307E407F50711
:1037900020F0A21BB30BE40BF50B661F771F881FED
:1037A000991F1A9469F760957095809590959B0183
:1037B000AC01BD01CF010895EE0FFF1F881F8BBF25
:1037C0000790F691E02D1994A29FB001B39FC0011C
:1037D000A39F700D811D1124911DB29F700D811D3D
:1037E0001124911D0895F0DFA59F900DB49F900DB9
:1037F000A49F800D911D11240895FB01DC0141500F
:10380000504030F08D910190801919F40020B9F7E3
:10381000881B990B0895F999FECF92BD81BDF89A46
:10382000992780B50895262FF999FECF1FBA92BD2A
:1038300081BD20BD0FB6F894FA9AF99A0FBE019691
:063840000895F894FFCF8B
:103846000300010806040201414551006A0066664C
:1038560000334966004722004A00004B00004866D4
:10386600004D6600650066610066620066670022BC
:103876007300664566005011004600004C00005675
:1038860022007106264F110041660042660053660B
:10389600006E00664E66004422006400224311005A
:1038A6006300225A22007A00225266007200665194
:1038B60024006F00225866007800665922005411D1
:0238C600000000
:00000001FF
