:10000000CFC00000F2C00000F0C00000EEC0000051
:10001000ECC00000EAC000000C943710E6C00000FD
:10002000E4C00000E2C00000E0C00000DEC000004C
:100030000C942A11DAC00000D8C00000D6C000001D
:10004000D4C00000D2C00000D0C000000C941A162A
:10005000CCC000000C943A16C8C00000C6C0000016
:10006000C4C00000C2C00000C0C00000BEC000008C
:10007000D40ABE0AAC0A9D0A8B078B078B078B0735
:100080008B078B078B078B078B07FD0A8B078B076B
:10009000EA0A0F0B070A740A8B078B078B07440ABF
:1000A000300A1D0A8B078B078B078B078B078B0783
:1000B0008B078B07900A8A0A8B078B078B078B07A6
:1000C0008B078B078B078B078B07960AFC098B071F
:1000D0008B07F6098B078B078B078B078B07CC09E0
:1000E0008B07BE0907084F09AD0893086408BC07D1
:1000F0001E091009BC07BC07080C0109BC07BC0796
:10010000BC07BC07BC07F508BC07BC07BC07BC079D
:10011000BC07BC07BC07BC07BC07BC07E5085809FF
:10012000BC07BC07D5083F083308BC07BC0720083C
:10013000BC07BC07BC07BC07BC07BC076809BC07F9
:10014000E9070708A509AD08930864088B071E098D
:1001500010098B078B078B0701098B078B078B0710
:100160008B078B07F5088B078B078B078B078B0794
:100170008B078B078B078B078B07E50874098B07A9
:100180008B07D5083F0833088B078B0720088B07A0
:100190008B078B078B078B078B0798098B07E90762
:1001A00011241FBECFEFD4E0DEBFCDBF0FB6F89451
:1001B000A89581B5886181BD11BC0FBE11E0A0E09A
:1001C000B1E0EEE7F5E302C005900D92A238B10769
:1001D000D9F724E0A2E8B1E001C01D92AF35B20723
:1001E000E1F70E94330C0C94BD1A0ACF969A109234
:1001F000B70108954FB7F8941092B901A89880916B
:10020000B10180FD03C081E08093B1012091F5012F
:100210003091F6018091F1019091F20182179307DC
:1002200058F08091FD019091FE0101969093F201AA
:100230008093F1014FBF08958091FD019091FE01DF
:100240002817390790F73093FE012093FD01C9016B
:1002500001969093F2018093F1014FBF08954FB73B
:10026000F8941092BA01A9988091B20180FD03C060
:1002700081E08093B2012091F7013091F8018091E3
:10028000F3019091F4018217930758F08091FF01D8
:100290009091000201969093F4018093F3014FBF77
:1002A00008958091FF01909100022817390790F777
:1002B000309300022093FF01C90101969093F4014D
:1002C0008093F3014FBF0895883018F4880F880F8A
:1002D000880F613061F108F1623069F06330B1F488
:1002E0008830D9F1803209F04AC08AE28093000157
:1002F000809301010895883059F1803299F58AE29E
:100300008093000188E280930101089587E0809343
:10031000000181E0809301010895883099F08032D6
:10032000A9F782E08093000180930101089588304D
:1003300049F08032F1F485E08093000182E08093FF
:100340000101089583E08093000110920101089556
:100350006093000110920101089510920001109223
:100360000101089587E08093000185E080930101F9
:10037000089584E08093000160930101089580E175
:100380008093000188E28093010108954F925F926B
:100390006F927F928F929F92AF92BF92CF92DF9295
:1003A000EF92FF92CF93DF93C82FD0E0FE01EE0FC4
:1003B000FF1FEE0FFF1FEF52FE4F80809180A28043
:1003C000B38060E072E18AE790E0A50194010E94A9
:1003D000591A69017A010E9414192B013C01C501C7
:1003E000B4010E9414199B01AC01C301B2010E9427
:1003F000801820E030E040E052E40E94E21920E062
:1004000030E040E05FE30E9409180E94E8184B01C9
:100410005C01E114F10451F480E8C816D104E10450
:10042000F10408F066C02FE730E002C02EEF3FEF86
:10043000CE01002496958795079496958795079405
:10044000982F802DFC01E452FC4F845E9B4F21933A
:100450003193E817F907D9F781149104A104B10485
:10046000C9F1C501B4010E9414192B013C01C12C32
:10047000D12C7601CC0FDD1FC295D295D07FDC2721
:10048000C07FDC27C701B6010E94141920E030E0CC
:1004900040E052E40E94E219A30192010E948018F8
:1004A0000E946D180E94E818FE01E60FF11DEE0F84
:1004B000FF1FE452FC4F80819181019691838083DC
:1004C0008FEFC81AD80AE80AF80A8C149D04AE0403
:1004D000BF04C1F6DF91CF91FF90EF90DF90CF90F6
:1004E000BF90AF909F908F907F906F905F904F9054
:1004F000089581E0C81AD108E108F108960198CF63
:100500000F931F93CF9308E010E0C0E0C8010E9452
:1005100024149C2F982788E027E0990F08F492274D
:100520008A95D9F7C92F0F5F1F4F043E81E0180746
:1005300069F7911101C0C1E08C2FCF911F910F91EC
:100540000895CF9387E090E00E942414C82FD8DF4D
:1005500091E0C81390E0892FCF9108951F93CF9316
:10056000DF9300D000D0CDB7DEB7182F40E050E0C9
:1005700063E0CE0101960E944A1443E050E068E037
:1005800071E0CE0101960E949A1A892B49F080E011
:100590000F900F900F900F90DF91CF911F910895C2
:1005A00083E090E00E943414663373408105910526
:1005B00071F7112391F180915C04843040F7882316
:1005C00039F18091DB03813210F78091ED01909138
:1005D000EE01C2978F379440D0F68091EF01909151
:1005E000F001C2978F37944090F68091F901909175
:1005F000FA01892B61F28091FB019091FC01892B1A
:1006000031F29091E301915081E0933108F2BFCF34
:100610008091DB038131C8F2BACF93DF8111CBCF58
:10062000B6CF89E090E00E94241491E0811101C0CE
:1006300090E09093D9038AE090E00E94241491E026
:10064000811101C090E09093DA038BE090E00E946A
:10065000241480935C0488E090E00E94241480932A
:10066000DB038BE290E00E94241491E0811190E082
:10067000909386018FE290E00E94241491E0811112
:1006800001C090E090938A0181E09091DB03983063
:1006900008F080E0809388018AE290E00E942414B0
:1006A00091E0811190E0909387019091DB03983065
:1006B00010F08111CBC01092890141E066E373E034
:1006C00080E090E00E94591660915C048091DB0309
:1006D000FBDD80E043DF8111C0C081E080938E01AB
:1006E00080938D01BF9A80918E01813009F4FAC008
:1006F000C798BD98C59A8A98929A309A389AD7988E
:10070000DF9AD498DC9AD698DE9AD598DD9AD19A59
:10071000D998D09AD8988E9A969AB89AC09A8C9A64
:100720009498329A3A988B9A93988F9A9798E091E6
:100730008801F0E0E050FF4F8081282F217080FF7A
:1007400055C0959A982F987083FD55C08D9A222395
:1007500009F454C0C49A911155C0BC9A282F227034
:1007600081FF55C0DB9A982F907184FD55C0D39AB4
:10077000222309F454C0C39A911155C0BB9A282F63
:10078000247082FF55C0DA9A982F907285FD55C06B
:10079000D29A222309F454C0C29A911155C0BA9A30
:1007A0008FE99FE00197F1F700C00000D99AD89A2D
:1007B00089B78C7F89BF13BE80918A0181114BC09C
:1007C000319A3998B99AC19816BC12BC17BC17BC9B
:1007D00087B5806687BD87B5846087BD0E94731525
:1007E00060E875E280E090E00C94F8149598982FFA
:1007F000987083FFABCF8D982111ACCFC49899230B
:1008000009F4ABCFBC98282F227081FDABCFDB98C9
:10081000982F907184FFABCFD3982111ACCFC398A0
:10082000992309F4ABCFBB98282F247082FDABCF5E
:10083000DA98982F907285FFABCFD2982111ACCF68
:10084000C298992309F4ABCFBA98AACF81E08093DC
:10085000890148E033CF3198B4CF80E097DD81E063
:1008600095DD4091F9015091FA01A1E0B2E0E1EC8F
:10087000F2E020E030E00CC012968C91129790E0EC
:100880000196280F391F139682E0A13CB80731F07A
:100890008D919C9111974817590770F33093D603A7
:1008A0002093D5034091FB015091FC0120E030E002
:1008B0000AC0828190E00196280F391F339693E099
:1008C000E138F90729F0808191814817590788F3A9
:1008D0003093D8032093D703BF9A80918E01813043
:1008E00009F006CFC79A05CF40E050E063E088E00A
:1008F00091E00E94B61443E050E066E373E080E0CC
:1009000090E00C949F14CF93DF93C9E9D1E068A9DC
:1009100079A98AA99BA94EE050E00E949F146CA976
:100920007DA98EA99FA942E150E00E949F1468AD65
:1009300079AD8AAD9BAD46E150E00E949F146CAD4D
:100940007DAD8EAD9FAD4AE150E00E949F14609155
:10095000D9017091DA018091DB019091DC014EE1C7
:1009600050E00E949F146091DD017091DE01809142
:10097000DF019091E00142E250E00E949F14C9ED36
:10098000D3E069E070E088810E948C146AE070E036
:1009900089810E948C146BE070E080915C040E945D
:1009A0008C1468E070E08091DB030E948C146CE092
:1009B00070E08091F9010E948C146DE070E08091EC
:1009C000FB010E948C1466E270E08091ED01909131
:1009D000EE010E94901468E270E08091EF01909126
:1009E000F0010E94901480918701C1E06AE270E0FA
:1009F0008C270E948C14809186016BE270E08C271A
:100A00000E948C146CE270E08091EB019091EC01FB
:100A10000E9490146EE270E08091E3010E948C14B9
:100A20006FE270E080918A010E948C1444E650E0ED
:100A300060E481E092E00E94D71444E251E060E477
:100A400081EC92E00E94D7145BDD67E070E0DF91FB
:100A5000CF910C948C143898000000000000000026
:100A600080918601882321F0829B02C082E0089554
:100A7000389A000000000000000080B382FB992734
:100A800090F981E089270895829B14C038988AE004
:100A900000008150E9F7309888EC00008150E9F7B8
:100AA000829B04C082E0309A389A089581E0309A9F
:100AB000389A089580E0309A389A08958091A1017B
:100AC0009091A20129B7277F29BF209184003091FE
:100AD000850049B7486049BF4091F5015091F60142
:100AE000782F692F8417950710F4742F652FE091E4
:100AF000BB01E1113EC024173507D8F549B7477F40
:100B000049BF9093F2018093F101309385002093C7
:100B100084007093FD016093FE012091D90330E0C1
:100B20008091B50190E02817390731F1939AEE23AF
:100B3000E1F081E090E099BD88BD8091030280934F
:100B400084011092820112BE1DBC1CBC8091DC038A
:100B50009091DD0395BD84BD8EB5897F8EBD8EB528
:100B600081608EBD81E08093BB0189B7886089BFB9
:100B70000895272F362FC2CF9398D9CF8091A30104
:100B80009091A40120917D002F7D20937D002091E4
:100B900086003091870040917D00406240937D0047
:100BA0004091F7015091F801782F692F841795072C
:100BB00010F4742F652FE091BC01E1114BC0241794
:100BC000350708F047C040917D004F7D40937D0080
:100BD0009093F4018093F301309387002093860073
:100BE0007093FF01609300022091DA0330E080915E
:100BF000B60190E02817390781F1979AEE2321F189
:100C000081E090E09BBD8ABD8091C3028093850105
:100C10001092830111BE1092890010928800809179
:100C20001C0490911D04909381008093800080911A
:100C30008A00897F80938A0080918A0081608093F6
:100C40008A0081E08093BC0180917D008062809366
:100C50007D000895272F362FB6CF9798CFCF4F928C
:100C60005F927F928F929F92AF92BF92CF92DF92CC
:100C7000EF92FF920F931F93CF93DF93282F30E0D3
:100C8000F901EE0FFF1FEB52FC4F00811181D901DA
:100C9000A756BE4F94969C919497992329F0A8014A
:100CA000440F551F040F151F5A96EC915A970E2E9C
:100CB000000CFF0BF7FDB5C09E2F5C967C90D90110
:100CC0001496ED01CC0FDD1FCC0FDD1FC756DE4F94
:100CD000488159816A817B816F01CC0CDD1C0D2C10
:100CE000000CEE08FF084C155D056E057F0508F049
:100CF00075C0C882D982EA82FB82E09FE001E19F51
:100D0000D00DF09FD00D112446015701B694A79441
:100D100097948794F901EE0FFF1FE750FE4F408034
:100D20005180B701A601983009F46FC06E01E12C23
:100D3000F12C8C149D04AE04BF0410F47501640101
:100D40004C195D096E097F09E901CC0FDD1FCC0F3D
:100D5000DD1F9E0127563E4FF9010081118122813E
:100D60003381F1E07F1609F454C0C157DE4F400FC4
:100D7000511F621F731F488359836A837B83AA0FA5
:100D8000BB1FA756BE4F4D925C9295B3811113C005
:100D90009B7F95BBA89ADF91CF911F910F91FF90F8
:100DA000EF90DF90CF90BF90AF909F908F907F900B
:100DB0005F904F9083CE977F95BBA99ADF91CF919B
:100DC0001F910F91FF90EF90DF90CF90BF90AF9069
:100DD0009F908F907F905F904F90D0CEE09FE001EA
:100DE000E19FD00DF09FD00D11244A015B01B69414
:100DF000A79497948794F901EE0FFF1FE750FE4FD9
:100E000040805180983009F091CF487F98EF892237
:100E10008DCF70956095509541955F4F6F4F7F4F87
:100E2000A4CFF195E195F10947CF811106C08091DA
:100E3000BB01811101C0DEC9089589B7877F89BFD1
:100E40008EB5887F8EBD1092B9011092BB0181E0F2
:100E50008093B10110929701A8980895811106C05E
:100E60008091BC01811101C0FAC9089580917D0073
:100E70008F7D80937D0080918A00887F80938A0097
:100E80001092BA011092BC0181E08093B2011092DD
:100E90009801A9980895811113C081E0C6DF969842
:100EA00081E08093B70110927D0089B7837089BF7C
:100EB0001FBC88E18EBD10928B0080938A0008953C
:100EC00081E0CCDFC09881E08093B801ECCF8F92B5
:100ED0009F92AF92BF92EF92FF920F93CF93DF93C7
:100EE000D82F7B010E940518C82F80918E01811197
:100EF00037C0DF3409F452C010928C018D2F0D2EB3
:100F0000000C990BAA0BBB0BFC01E554F109EF3265
:100F1000F10508F43FC000918D0120E030E0A90107
:100F20006D2FC7010E946716DA3409F08CC38091D7
:100F3000E401811188C380918E01811184C3D0E0C6
:100F4000FE01E756FE4F808DC956DE4F80FF7DC300
:100F50008881823009F477C381E08883C1E04CC086
:100F60004D2F0D2E000C550B660B770BFA01E55437
:100F7000F109EF32F10550F0FA01E154F109EA33D9
:100F8000F10548F6E85CFF4F0C947B1AEE58FF4FD2
:100F90000C947B1AEF55FF4F0C947B1ACC2309F469
:100FA0006AC380918C01833108F4D8C1F701808134
:100FB000805380938E0101E0811101C000E0009315
:100FC0008D0181118EC3C0E020E030E0A901DFE493
:100FD0000FC0D0E0CC0FDD1FCC0FDD1FC752DE4F9E
:100FE000288139814A815B8100918D01C1E0D3E77D
:100FF0006D2FC7010E9467168C2FDF91CF910F9143
:10100000FF90EF90BF90AF909F908F9008950FB793
:10101000F894C7010E94BD17D0E0CC0FDD1FCC0FA4
:10102000DD1FC756DE4F688379838A839B830FBF9A
:1010300000918D01C1E020E030E0A901D5E4D8CFD6
:101040008FB7F894D0E0CC0FDD1FCC0FDD1FC75653
:10105000DE4F288139814A815B818FBF00918D01EC
:10106000C1E0DAE6C5CFD0E0C756DE4F2EA130E0B2
:1010700040E050E000918D01C1E0D7E6B9CFD0E06B
:10108000C756DE4F8CA1813009F406C120E030E064
:101090008C8D813009F4DEC288A1811101C03160DC
:1010A0008091E401813009F4D7C28AA1811101C085
:1010B00020618E8D813009F4D1C240E050E0009172
:1010C0008D01C1E0D6E694CFC7010E94BD172C2F39
:1010D00030E040ECC49FF0011124E254FD4F8080C9
:1010E0009180A12CB12CF901EE0FFF1FEF55FE4F9F
:1010F000462F572FBC01481559056A057B0508F492
:10110000B9C051834083F901E956FE4F8081823096
:1011100009F4B7C0108200918D01C1E020E030E0F9
:10112000A901D9E465CFC7010E94BD17D0E0FE0137
:10113000EE0FFF1FEE0FFF1FE755FE4F6083718319
:1011400082839383C956DE4F188200918D01C1E0DE
:1011500020E030E0A901D8E44BCFD7018C91D0E05A
:10116000FE01E756FE4F90ED980F908F91E011969B
:101170002C91203309F483C0948FC956DE4F188216
:1011800092A191110AC090918901992331F0815364
:10119000823008F4BDC281E084A300918D01C1E0DA
:1011A00020E030E0A901D7E423CFD0E0CC0FDD1F51
:1011B000CC0FDD1FCF53DE4F288139814A815B81FF
:1011C00000918D01C1E0D5E613CFD0E0CC0FDD1F3B
:1011D000CC0FDD1FC753DE4F288139814A815B81E7
:1011E00000918D01C1E0D1E603CFC7010E94A51790
:1011F00082BD00918D01C1E020E030E0A901D6E57B
:10120000F7CED7014C9140536C2F83E00E94BE1360
:1012100000918D01C1E020E030E0A901D0E5E8CEE9
:1012200081E0C1111BC001DE0E94F60000918D011A
:10123000C1E020E030E0A901DCE4DACE80E0C111B9
:101240001CC0F3DDD0E0C956DE4F188200918D013D
:10125000C1E020E030E0A901DBE4CACEFFDDC09AA6
:101260001092B80100918D01C1E020E030E0A901A9
:10127000DCE4BECEB501A40144CFF0DDE3CF90E0C5
:101280007BCFC1111EC21ADC00918D01C1E020E0AC
:1012900030E0A901D9E4ACCE20E034E0F9CE0091F1
:1012A0008D01C1E024E030E040E050E0D0E0A0CE8D
:1012B000EC2FF0E0EE0FFF1FEE0FFF1FEF52FE4F7F
:1012C000208131814281538100918D01C1E090CE16
:1012D000C13009F4E5C12091860130E040E050E0E2
:1012E00000918D01C1E084CE8C2F90E0FC01EE0FC7
:1012F000FF1FE351FE4F208131815901AA0CBB1C15
:10130000880F991F880F991FFC01EF52FE4FD501DE
:10131000119620813181428153810E94901A95015A
:1013200040E050E00E94591A00918D01C1E060CE6A
:10133000D7018C91805309F093C100918D01C1E0D8
:1013400020E030E040E850E053CE8C2FA4DD009147
:101350008D01C1E020E030E0A9014ACED7019C9187
:101360009153933008F4DDC110928C0100918D01EE
:10137000C1E020E030E0A901D0E03ACEEC2FF0E06F
:10138000EE0FFF1FE750FE4F2081318140E050E01B
:1013900000918D01C1E02CCE4C2F50E0FA01EE57A8
:1013A000FE4F6081862F90E09C01220F331F280F93
:1013B000391F70EC749FC001759F900D1124820F2E
:1013C000931F87569E4FDC01A859BF4FCC911196B1
:1013D0007C91119712962C2F372F4C9150E081E081
:1013E000860F803408F0ACC18083D2CFC13009F4BD
:1013F000E8C12091E30171CFCC2309F4A3C100918E
:101400008D01C1E020E030E0A901D0E0F1CDC701BD
:101410000E94BD17EC2FF0E0EE0FFF1FEE0FFF1F35
:10142000E752FE4F608371838283938300918D0125
:10143000C1E020E030E0A901DBCDC7010E94A51783
:10144000EC2FF0E0EE0FFF1FE750FE4F90E091838E
:10145000808300918D01C1E020E030E0A901C8CD7A
:10146000C7010E94A517EC2FF0E0EE57FE4F8083D6
:1014700000918D01C1E0803408F46CCF23E030E0AE
:1014800040E050E0D0E0B4CDC7010E94BD17AC2FC2
:10149000B0E0FD01EE57FE4F9081292F30E0A90109
:1014A000440F551F420F531FC0ECCA9F9001CB9FA2
:1014B000300D1124240F351F27563E4FD901A8594E
:1014C000BF4F11967C936E9312968C9381E0890F97
:1014D0008083803408F43BCF108200918D01C1E0FD
:1014E00020E030E0A90184CD823009F489C1833045
:1014F00009F47EC1813009F02ACF81E0F7019081A3
:10150000903309F4AEC12AD881119AC100918D019E
:10151000C1E0B4CFC13009F44CC120915C04DDCEF0
:10152000EC2FF0E0E752FC4F2081D7CEEC2FF0E01B
:10153000EE0FFF1FE351FE4F27CFC701C13009F463
:1015400013C10E94A51780935C0400918D01C1E036
:1015500020E030E0A9014CCDEC2FF0E0E752FC4F49
:1015600081E0D7019C91903309F411C180830091EF
:101570008D01C1E020E030E0A9013ACDC7010E9411
:10158000BD17EC2FF0E0EE0FFF1FEE0FFF1FEF5225
:10159000FE4F608371838283938300918D01C1E04C
:1015A00020E030E0A90124CDC7010E94BD17EC2F37
:1015B000F0E0EE0FFF1FEE0FFF1FE753FE4F6083BB
:1015C00071838283938300918D01C1E020E030E03C
:1015D000A9010ECDC701C13009F4B7C00E94A517FB
:1015E00091E0811101C090E09093860100918D01FE
:1015F000C1E020E030E0A901FBCCC7010E94BD178B
:10160000EC2FF0E0EE0FFF1FE351FE4F718360837C
:1016100000918D01C1E020E030E0A901E9CCC701D3
:10162000C13009F4B6C00E94A5179FEF980F9331FF
:1016300008F06CCF8093E30100918D01C1E020E0C0
:1016400030E0A901D5CCC1E0D7CC81E0888380A36C
:10165000C1E0D2CC326020CD206227CD21602DCDDB
:1016600000918D01C1E0813009F0CCCE2CE134E055
:1016700040E050E0BDCC80918A01882359F139982F
:10168000D7018C91803309F457C0319A10928C01A4
:1016900000918D01C1E020E030E0A901DFE4A8CC99
:1016A00080918701282F30E040E050E09091DB03EB
:1016B000983060F1C827C093890100918D01C1E085
:1016C00097CC5CDA00918D01C1E020E030E0A90107
:1016D000D9E48ECC319AF7018081803379F1399A3F
:1016E000D5CF81E0A2DB0E94F60081E0B7DBC09A93
:1016F0001092B801109297011092980100918D01FB
:10170000C1E020E030E0A901DFE472CCC0E0D3CF3B
:1017100014A200918D01C1E020E030E0A901D7E4DE
:1017200067CC8F5F80938C0100918D01C1E020E038
:1017300030E0A901D0E05CCC3198A8CF3998A6CF91
:10174000108226CE20918A01C8CD0E94A51791E073
:10175000811101C090E09093870100918D01C1E05B
:1017600020E030E0A90144CC0E94A5178093DB0360
:101770008830D8F1809187018C278170809389010E
:1017800000918D01C1E020E030E0A90131CC80E082
:10179000EDCE0E94BD1761157105F1E08F0791052F
:1017A000C8F000918D0123E030E040E050E0D0E04F
:1017B0001FCC2091DB0330E040E050E000918D0130
:1017C00017CC2091EB013091EC0140E050E000910A
:1017D0008D010ECC7093EC016093EB0100918D01B3
:1017E000C1E020E030E0A90103CC80E090E0C5CF6B
:1017F0007BD800918D01C1E020E030E0A901F8CB59
:1018000082D800918D01C1E020E030E0A901F0CB49
:10181000C11113C0882309F42ECF81E0F701908114
:10182000903349F080938A0100918D01C1E020E05E
:1018300030E0A901DDCB80E0F5CF8111B7CBB1CB92
:101840000E94A102811183CD0E94800267E070E0B6
:101850000E948C1400918D01C1E020E030E0A901CC
:10186000C7CB80E050CECF93DF93CDB7DEB7609784
:101870000FB6F894DEBF0FBECDBF78940E9411035F
:10188000AA24AA94BB24BA94812C312C10E0C12C38
:10189000E12CF12CDD24D39499249A94412C512CE1
:1018A00080E8682E712CB599E5C0D092E401809152
:1018B000BB018111BFC18091BC018111B8C18FEF03
:1018C000E81AF80A80918B018111DEC0E114F1045D
:1018D00009F0F6C080918E01882309F4E2C180915D
:1018E00002018111F1C088B3805888BBCDD8082F80
:1018F0008091E2010817D1F145E062E0802F3ED7E8
:1019000080918901882319F0023009F4F9C280918D
:1019100000019091B501913009F4BEC2D092B3019B
:101920001092BD019091B601913009F4B2C2D092EB
:10193000B4011092BE01382F317080FF51C2959AC8
:10194000282F227081FF4AC2DB9A982F947082FF61
:1019500043C2DA9A332309F43DC2C49A222309F41C
:1019600037C2C39A992309F431C2C29A8091E40123
:10197000811199CFCC9B98C0CF9B74C20FEF80E0B0
:101980009FB7F89420918400309185009FBF4091CB
:10199000BB01442359F09091B501891739F060914A
:1019A000F5017091F6012617370728F10F3F09F46A
:1019B0006BC2E02FEE0FFF0BEB51FE4F2081318108
:1019C0003093A2012093A1018093B5019091BD01B4
:1019D000992309F4F3C19091BF01813009F4F2C158
:1019E0009093B3010F3F29F48091E201823009F412
:1019F00081C264D8B02ECD9BDAC1CE9B2EC20FEF30
:101A000080E09FB7F89420918600309187009FBFB7
:101A10009091BC01992389F09091B601891741F00A
:101A20004091F7015091F8012417350708F43BCF96
:101A30000F3F31F4AA24AA9436CF0F3F09F4B3C262
:101A40002091E9013091EA013093A4012093A30190
:101A50008093B6019091BE01992309F409C2909137
:101A6000C001813009F408C29093B40187D8A02E38
:101A7000B59B1BCF1092E4018FEFE81AF80A809112
:101A80008B01882309F422CF8091020181111CC0AF
:101A9000E114F10409F427CF8091E401811103CF0F
:101AA000E11001CFCC9968CF81E0B81609F4A3CF3B
:101AB00081E09091E101913009F080E001E060CF98
:101AC00080910201882341F31E3F09F4ACC00E94BB
:101AD000BD158823F1F088B3805888BB0E94C815D3
:101AE000C82E40918D016C2DCE0101960E94561793
:101AF000182F882371F00CF4D0C0BE016F5F7F4FA8
:101B0000E6D9082FCE0101960E940C16002309F495
:101B100069C1E114F10431F480918E01813009F43E
:101B200044C1C7988091E401811143C080918B0129
:101B300081113FC0E1103DC0CC9BA4C109B3000F8F
:101B4000000B0B1551F08091B501811105C08091FA
:101B50009701823009F42CC2B02ECD9B91C109B3FC
:101B600006FB002700F901958091BA01811121C07F
:101B70000A15F9F081E0013009F080E09091BC0194
:101B8000911191C10F3F09F42DC22091E9013091CB
:101B9000EA013093A4012093A3018093B6010130A0
:101BA00009F44BC2D092B4010E94BE05A02E882435
:101BB000839480919701813009F43FC0809198010E
:101BC000813009F070CE9091BC0191116CCE2091C2
:101BD000B20190918901992309F422C19FEF920FDC
:101BE000923008F4C2C1909101018091C0013091FE
:101BF000B601313009F4D3C18093B401D092BE0153
:101C000090FD4FC1C49893FD73C1BC9A91FF6EC102
:101C1000C39A94FD69C1BB9A92FF64C1C29A95FDB3
:101C20005FC1BA9A06C188B3805888BB5ACF81E099
:101C300015D945CE81E0F9D83ECE8091BB01811106
:101C4000BDCF9091B10180918901882309F4D7C05B
:101C50008FEF890F823008F493C1809101012091A8
:101C6000BF013091B501313009F495C12093B30122
:101C7000D092BD0180FD13C1959883FD2DC18D9A31
:101C800081FF28C1DB9A84FD23C1D39A82FF1EC144
:101C9000DA9A85FD23C1D29ABBC0CE010196BCD78A
:101CA00038CF0E942B05082F882309F418CE81E035
:101CB000BCD881E0D3D88FB7F89440929901509264
:101CC0009A0160929B0170929C0140929D015092FA
:101CD0009E0160929F017092A0018FBFDCD6D092CE
:101CE0008B01023009F48BC110920201389AE09105
:101CF0008801F0E0E050FF4F8081282F217080FDA7
:101D0000E3C09598982F987083FD1FC18D9A222368
:101D100009F419C1C49A911114C1BC9A282F2270D8
:101D200081FF0DC1DB9A982F907184FD1CC1D39A5D
:101D3000222309F416C1C39A911111C1BB9A282F0D
:101D4000247082FF0AC1DA9A982F907285FD03C130
:101D5000D29A222309F4FDC0C29A9111F8C0BA9A0E
:101D600045E062E080E00AD51092BD011092BE010C
:101D700080E091D881E08FD8D092B101D092B201A9
:101D80001092B501D092B3011092B6018091ED018D
:101D90009091EE019093A2018093A101D0929701BE
:101DA000AA24AA94BB24BA949ACDC79ABBCE81E048
:101DB000A81609F478CD01E081E023CE91E08130CE
:101DC00009F00ECE91959093B3010CCEC298CECD72
:101DD000C398C8CDC498C2CDDA98BCCDDB98B5CD38
:101DE0009598AECD0BD79BE088E10FB6F894A895F7
:101DF00081BD0FBE91BD80E090E00E94BD1A809130
:101E0000B501813009F498C0D092B3011092BD01A0
:101E100090FF17C00E945E0582E080939701CECEAE
:101E20009091B601913009F484C08093B40110926E
:101E3000BE0120FF0CC00E94BE0582E08093980185
:101E400032CD80E00E942F0610929701B7CE81E03C
:101E50000E942F061092980126CDAA2009F423CDC6
:101E600000E0CECDBB2009F4C6CD00E080E088CDF7
:101E700091E0813009F0F8CD91959093B401F6CDC1
:101E800001E072CE01E05DCE2091ED013091EE01D6
:101E900097CD9092B4014DCD9092B30141CD959ADA
:101EA000ECCEC49AB0CE2091B601821709F46ACE66
:101EB0001092980180919701813009F0F4CC8091C3
:101EC000BB018111F0CCBDCE959A1CCFDA98E1CE42
:101ED000D398DCCEDB98D7CE8D98D2CED29898CF3F
:101EE000BA98A7CFC2989BCEBB9896CEC39891CEF6
:101EF000BC988CCE442309F47DC0BB24BA947BCD1E
:101F0000809101019091BF012091B501213009F428
:101F10008BC09093B301D092BD019091C0012091EC
:101F2000B601213009F47CC09093B401D092BE0177
:101F300002CD9092B4017BCF9092B30167CFDB9832
:101F4000F2CEBC98EBCEC498E6CE8D98E0CEBA988F
:101F500007CFC29802CFD298FCCEDA98F5CEBB98C4
:101F6000EECEC398E9CED398E3CE909100013091A4
:101F7000B6013130A1F18093B4011092BE0140CE80
:101F8000809100012091B501213031F1D092B3014F
:101F90001092BD016FCE21952093B30169CE81953A
:101FA0008093B4012BCE0E942F01AA24AA947BCC4B
:101FB0000F3F09F43DC0E02FEE0FFF0BEB51FE4F3A
:101FC000808191819093A2018093A1010E945E057E
:101FD000B02E33243394C1CD9092B301D9CF9092D7
:101FE000B401CBCF882061F1992369F1AA24AA9486
:101FF000812CDFCD0E94FA00BB24BA94FCCCD09295
:10200000020159D500918D0124E030E040E050E01C
:1020100060E0CE010C965BD6CE010C96FDD55FCC70
:1020200091959093B40182CF91959093B30173CF22
:1020300031100FC0BB24BA9490CD9092B401B4CDAE
:10204000AA24AA94B6CD0E942F01AA24AA94812C76
:10205000B0CD8091ED019091EE019093A20180931B
:10206000A1010E945E05BB24BA94312C76CD1F924B
:102070000F920FB60F9211240F931F932F933F933C
:102080004F935F936F937F938F939F93EF93FF9300
:102090008AB59BB5019709F05DC081B7E82FEE7353
:1020A000F0E0E45EFB4F208131813093810020938A
:1020B00080008F5F81BF80918600909187009BBDDB
:1020C0008ABD2A9B5AC03A9800919D0110919E01A9
:1020D00020919F013091A0014091B401042E000C89
:1020E000550B660B770B400F511F621F731F4093F8
:1020F0009D0150939E0160939F017093A001A99B45
:1021000010C0AB990EC000919301109194012091E1
:10211000950130919601401751076207730709F442
:1021200082C02091FF013091000228173907A0F4E6
:10213000A99B03C01092BA01A9981092BC0180918A
:102140007D008F7D80937D0080918A00887F8093C1
:102150008A0002C09BBD8ABDFF91EF919F918F9134
:102160007F916F915F914F913F912F911F910F91AF
:102170000F900FBE0F901F9018953A9A20918501ED
:10218000211123C02091F3013091F4012817390760
:1021900000F5809183018F3398F48F5F80938301E2
:1021A00090E0AC01440F551F840F951F87569E4F3A
:1021B000FC01E85DFE4F408151812417350718F17D
:1021C0003093870020938600C7CF2150209385014C
:1021D000C3CF8217930728F580918301882381F369
:1021E00081508093830190E0AC01440F551F840F10
:1021F000951F87569E4FFC01E85DFE4F408151813F
:1022000042175307E8F62091BE012223D9F03296F7
:102210008081982F990F890F8E5F809385019A0195
:10222000CFCF9C01CDCFAB9A2091FF01309100021E
:10223000A9014F5F5F4F5093F4014093F301109257
:10224000850173CFFC01E65DFE4F8081809385019F
:102250009A01B6CF1F920F920FB60F9211240F93CF
:102260001F932F933F934F935F936F937F938F931E
:102270009F93EF93FF9388B599B5019709F057C0E5
:1022800082B7E82FEE73F0E0E452FC4F20813181F9
:1022900035BD24BD8F5F82BF809184009091850001
:1022A00099BD88BD849B56C0949800919901109166
:1022B0009A0120919B0130919C014091B301042E21
:1022C000000C550B660B770B400F511F621F731FDD
:1022D0004093990150939A0160939B0170939C01E4
:1022E000A89B10C0AA990EC000918F011091900177
:1022F00020919101309192014017510762077307B5
:1023000009F47EC02091FD013091FE0128173907A4
:1023100080F4A89B03C01092B901A8981092BB0149
:1023200089B7877F89BF8EB5887F8EBD02C099BD72
:1023300088BDFF91EF919F918F917F916F915F91F8
:102340004F913F912F911F910F910F900FBE0F90C2
:102350001F901895949A20918401211123C02091F7
:10236000F1013091F2012817390700F580918201BF
:102370008F3398F48F5F8093820190E0AC01440F1B
:10238000551F840F951F87569E4FFC01E859FF4F3C
:10239000408151812417350718F13093850020932F
:1023A0008400C7CF215020938401C3CF82179307A5
:1023B00028F580918201882381F3815080938201E6
:1023C00090E0AC01440F551F840F951F87569E4F18
:1023D000FC01E859FF4F4081518142175307E8F64D
:1023E0002091BD012223D9F032968081982F990F38
:1023F000890F8E5F809384019A01CFCF9C01CDCF4E
:10240000AA9A2091FD013091FE01A9014F5F5F4F13
:102410005093F2014093F1011092840177CFFC01B7
:10242000E659FF4F8081809384019A01B6CFCF9304
:10243000DF9300D000D01F92CDB7DEB78330D9F143
:102440008091ED019091EE0144E1489FF001499F98
:10245000F00D11242091E30130E0B9016C5E7F4F53
:10246000CF010E94451A7093E6016093E50164E193
:1024700070E0621B730BCF010E94451A7093E80154
:102480006093E7011092E1016091EF017091F0011A
:10249000469FC001479F900D1124B901F6D7709354
:1024A000EA016093E9010F900F900F900F900F9049
:1024B000DF91CF91089585E0E3E0F1E0DE01119630
:1024C00001900D928A95E1F7453068F7611128C0B7
:1024D0002091ED013091EE01220F331F220F331FA7
:1024E000220F331FE1E0F0E0EC0FFD1FE40FF11DC0
:1024F000E081F0E0BF01685F7F4FC901C6D77093EC
:10250000E6016093E50168E070E06E1B7F0BC90196
:10251000BCD77093E8016093E7011092E101C3CF4B
:10252000613009F0C0CF8091EF019091F001880FE8
:10253000991F880F991F880F991FE1E0F0E0EC0FB9
:10254000FD1FE40FF11D608170E09FD77093EA01D9
:102550006093E901A8CF3F924F925F926F927F9272
:102560008F929F92AF92BF92CF92DF92EF92FF92A3
:102570000F931F93CF93DF9300D000D0CDB7DEB77A
:102580006B017C01442E8EE090E06ED16093C90116
:102590007093CA018093CB019093CC0182E190E0CB
:1025A00063D16093CD017093CE018093CF0190935E
:1025B000D00186E190E058D16093D1017093D201AF
:1025C0008093D3019093D4018AE190E04DD1609340
:1025D000D5017093D6018093D7019093D8018EE1F5
:1025E00090E042D16093D9017093DA018093DB01CE
:1025F0009093DC0182E290E037D16093DD0170932B
:10260000DE018093DF019093E00186E290E01DD12E
:102610009093EE018093ED0188E290E016D19093C3
:10262000F0018093EF018CE090E00ED190E0909368
:10263000FA018093F9018DE090E006D190E090934B
:10264000FC018093FB018EE290E0FED08093E301D9
:102650008CE290E0FAD09093EC018093EB01109221
:10266000E40144E650E060E481E092E034D144E2E9
:1026700051E060E481EC92E02ED1E9E9F1E06DEE09
:1026800071E021E032E045EF51E00DEF11E081EF24
:10269000682E81E0782EFA83E983FC83EB8392E055
:1026A000592E33243394812C912CA0E8AA2EB12CDE
:1026B000148E328E14A212A210A2168EAB81BC818F
:1026C0008D929D92AD92BC921397DB018D919D915D
:1026D000BD01A981BA8119969C938E931897308E6B
:1026E000AB81BC8150961D921D921D921C925397F6
:1026F0009896CD92DD92ED92FC929B9746A2D901DD
:102700008D919C91DA018D939D93AD01D8018D93AC
:102710009D938D010196D3018D939D933D01A981D8
:10272000BA811D969C938E931C975A9431968B81F7
:102730009C8104969C838B831296BA83A983205430
:102740003F4F5110B5CF1092E20145E062E080E0CA
:102750000F900F900F900F90DF91CF911F910F91DD
:10276000FF90EF90DF90CF90BF90AF909F908F90B1
:102770007F906F905F904F903F9059CE582F8093ED
:10278000E201823019F08130C9F051CE8091F90117
:102790009091FA019093E6018093E5019093E8010E
:1027A0008093E70181E08093E1018091FB019091AA
:1027B000FC019093EA018093E9010895E091ED0115
:1027C000F091EE019F01ABEABAEA9BD69695879508
:1027D0009093E6018093E501F093E801E093E7012F
:1027E0005093E1018091EF019091F00196958795CA
:1027F0009093EA018093E9010895EFE0F1E02AE681
:1028000090E005C09F5F9732E9F0208133968213F4
:10281000F9CF892F90E0FC01EE0FFF1F8E0F9F1F55
:10282000FC01E45FFE4F611105C08281411105C0CA
:102830008F70089581814423D9F385958595859579
:10284000859508958FEF089583C61F93CF93DF93E7
:10285000EC017ED6182FCE0101967AD6982F812FC3
:10286000DF91CF911F910895CF92DF92EF92FF9267
:10287000CF93DF93EC01E9DF6C01CE010296E5DF37
:102880007C01C701B601DF91CF91FF90EF90DF90FF
:10289000CF900895EF92FF920F931F93CF93DF9302
:1028A000662391F0EA018C0161507A01E60EF11C79
:1028B0008FEFE81AF80ACE014BD6F80181938F0109
:1028C0002196CE15DF05B9F7DF91CF911F910F91BA
:1028D000FF90EF900895EF92FF920F931F93CF9385
:1028E000DF93E62E8A01662381F0EC01F12CC8010A
:1028F000ACDF99838883C8010296A7DF8A830D5FC6
:102900001F4FF3942396EF10F2CFDF91CF911F91D9
:102910000F91FF90EF900895282FCB01622F20C6D2
:102920001F93CF93DF93192FEB01682FCE0118D699
:10293000612FCE010196DF91CF911F9111C6CF92E9
:10294000DF92EF92FF92CF93DF936B017C01EA015C
:10295000BA01C601E5DFBE016E5F7F4FC701DF919F
:10296000CF91FF90EF90DF90CF90DACFEF92FF9270
:102970000F931F93CF93DF93662391F0EC01615087
:10298000E62EF12C8FEFE81AF80AEC0EFD1E8A01F4
:102990006991C801E5D50F5F1F4FCE15DF05C1F75F
:1029A000DF91CF911F910F91FF90EF900895EF92DB
:1029B000FF920F931F93CF93DF93E62E8A01662336
:1029C00081F0EC01F12CB80188819981A9DF6A813D
:1029D000C8010296C5D50D5F1F4FF3942396EF10E3
:1029E000F2CFDF91CF911F910F91FF90EF9008955B
:1029F000CF92DF92EF92FF92CF93DF936B017C0136
:102A000082E08BB960E079E08DE390E0A701960168
:102A100050D5DA01C9010197A109B109AC01BD0185
:102A20007695679557954795842FC52F90E0D92FB8
:102A30009E01207F3327232BA9F01BB860E874E8A0
:102A40008EE190E0A701960134D5DA01C901019722
:102A5000A109B109AC01BD017695679557954795D8
:102A6000CA01C92FCF70C0BD89B98FB7F894109231
:102A7000C4031092C5031092A2031092A3038FBF48
:102A8000549A539A579A5598DF91CF91FF90EF90AF
:102A9000DF90CF90089554985398579855988FB7D2
:102AA000F894E4EAF3E010A211A2E2E8F3E010A245
:102AB00011A28FBF0895D59ADD9AD798DF9AD69A3A
:102AC000DE9AD49ADC9A389A8FB7F894E4EAF3E065
:102AD00010A211A2E2E8F3E010A211A28FBF81E0E0
:102AE000809381030895D598DD9AD798DF9AD69878
:102AF000DE9AD498DC9A109281038FB7F894E4EAB6
:102B0000F3E010A211A2E2E8F3E010A211A28FBF3D
:102B1000089598E008C00000DE98DD9A880FCF99EC
:102B20000AC0915059F0DD9887FFF5CFDE9ADD9A03
:102B3000880FCF9BF6CF8F5F9150A9F708959091A2
:102B4000A3038091A203981709F082990895DC9855
:102B500081E8DFDF829BFECF80E8DBDF87FD0BC0F3
:102B6000E091A203F0E0EE57FC4F80838091A20336
:102B70008F5F8093A203DC9A089580918103811175
:102B8000DEDF8091A2039091A303891B8F710895CA
:102B90009091A3038091A203981751F0E92FF0E0E0
:102BA000EE57FC4F80819F5F9F719093A303089520
:102BB0008FEF0895539B12C09091C4039F5F9F7144
:102BC0002091C5039217A1F0E091C403F0E0EC5509
:102BD000FC4F80839093C403559A0895909181038C
:102BE000911101C00895DC988F7793DFDC9A0895E6
:102BF000559A2091C5039217E1F3E6CF539B0BC082
:102C00009091C4038091C503981729F0559A80913B
:102C1000C5039813FCCF0895CF93DF93EC0188810F
:102C2000882329F02196C6DF89918111FCCFDF919D
:102C3000CF9108952F932FB72F939F938F93EF9357
:102C4000FF932CB18091A2038F5F8F719091A303AA
:102C5000891741F0E091A203F0E0EE57FC4F20838A
:102C60008093A203FF91EF918F919F912F912FBF9E
:102C70002F9118958F938FB78F939F93EF93FF9317
:102C80008091C5039091C403891302C055980AC06E
:102C9000E82FF0E0EC55FC4F90818F5F8F718093AF
:102CA000C5039CB9FF91EF919F918F918FBF8F9139
:102CB00018951092D4031092C8032BE0E9ECF3E0CE
:102CC000DF011D922A95E9F71092C70344CCCF92F9
:102CD000DF92EF92FF920F93CF93DF93EC01862F59
:102CE00069017A0161111CC081E28883013009F415
:102CF0007FC080E389838C2D8F708A3010F18F5BC9
:102D00008A83E2E0F0E0EC0FFD1F8DE08183128208
:102D1000DF91CF910F91FF90EF90DF90CF900895CA
:102D2000402F60E06ADD87FDDFCF9DE3988382302E
:102D300069F08330A9F0863059F1E82F880FFF0B36
:102D4000E2CF805D8A83E2E0F0E0DDCF8C2D8295DA
:102D50008F708A3018F08F5B8983CDCF805DCACFAA
:102D60008D2D8F708A3008F44EC08F5B89838C2D37
:102D700082958F708A3008F443C08F5B8A838C2DD4
:102D80008F708A30C0F18F5B8B83E3E0F0E0BBCFC4
:102D9000C701AA27BB27282F22952F702A3008F4B5
:102DA00041C02F5B2D838F708A30C8F18F5B8E837B
:102DB000BB27AF2D9E2D8D2D282F22952F702A30C9
:102DC00058F12F5B2B838F708A3018F18F5B8C83C7
:102DD0008C2D82958F708A30C8F08F5B89838C2D03
:102DE0008F708A3010F5805D8A83E6E0F0E08BCF4B
:102DF000E0E0F0E088CF805D8B83E3E0F0E083CF1C
:102E0000805D8A83BCCF805D8983B1CF805D8983FB
:102E1000E6CF805D8C83DCCF205D2B83D4CF805DBB
:102E20008E83C6CF205D2D83BECF8F5B8A83E6E085
:102E3000F0E069CF0F931F93CF932091C9032093A4
:102E4000C6039091CA0391539093C703933028F01F
:102E500083E0CF911F910F9108958B01C82F61E0FE
:102E6000822FCBDC4DEF4C0F082E000C990B242F3A
:102E700030E08217930729F081E0CF911F910F91E5
:102E80000895442369F0EBECF3E0D8018CEF8C0F4C
:102E900090E084539C4F41914D93E817F907D9F77F
:102EA000F801E20FF31F10828FEFD3CFCF93DF93A0
:102EB000EC019091D4039923A1F06A33E1F0E09101
:102EC000C80381E08E0F8093C803F0E0E753FC4F06
:102ED00060836D3011F18B30E9F080E0DF91CF91AC
:102EE00008956A33D1F71092C80381E08093D40328
:102EF0001092C903F2CF93E38EEF21E2288320E3FF
:102F000029839A831B829DE09C831092D403DF91D6
:102F1000CF91089591E38FEFF0CFBE018BDF982F13
:102F20008F3F59F081E2888380E389839F709A30D4
:102F300048F09F5B9A838FEFE5CF1092D403809186
:102F4000C603CCCF905D8FEFDCCFFC0191819A332B
:102F500054F09154892F8F7090819A334CF49F7064
:102F60009295892B0895892F8F7090819A33BCF3A5
:102F700091549F709295892B0895FC0161816A3369
:102F800024F16154962F9F7060816A331CF1615463
:102F90006F706295692B73817A3314F17154972F96
:102FA0009F7072817A330CF171547F707295792B16
:102FB00085818A3304F181548F7094819A33FCF4B3
:102FC0009F709295892B90E00895962F9F70608155
:102FD0006A33ECF66F706295692B73817A33F4F67D
:102FE000972F9F7072817A33FCF67F707295792BE0
:102FF00085818A3304F78F7094819A330CF391544E
:103000009F709295892B90E008958091C703089551
:103010005058BB27AA270ED084C175D130F07AD181
:1030200020F031F49F3F11F41EF46AC10EF4E095D4
:10303000E7FB37C1E92F86D180F3BA176207730720
:103040008407950718F071F49EF5B5C10EF4E0956C
:103050000B2EBA2FA02D0B01B90190010C01CA0152
:10306000A0011124FF27591B99F0593F50F4503EFD
:1030700068F11A16F040A22F232F342F4427585FEF
:10308000F3CF469537952795A795F0405395C9F707
:103090007EF41F16BA0B620B730B840BBAF09150BF
:1030A000A1F0FF0FBB1F661F771F881FC2F70EC05E
:1030B000BA0F621F731F841F48F487957795679531
:1030C000B795F7959E3F08F0B3CF9395880F08F01A
:1030D0009927EE0F97958795089556D180F09F37E1
:1030E00040F491110EF468C160E070E080E89FE365
:1030F000089526F01B16611D711D811DD8C0F2C0F8
:103100000CD00FC107D140F0FED030F021F45F3F6A
:1031100019F0C7C0511150C1F3C014D198F39923CD
:10312000C9F35523B1F3951B550BBB27AA2762178B
:103130007307840738F09F5F5F4F220F331F441FD0
:10314000AA1FA9F333D00E2E3AF0E0E830D0915008
:103150005040E695001CCAF729D0FE2F27D0660FF5
:10316000771F881FBB1F261737074807AB07B0E834
:1031700009F0BB0B802DBF01FF2793585F4F2AF04A
:103180009E3F510568F08DC017C15F3FECF3983E3C
:10319000DCF3869577956795B795F7959F5FC9F7A7
:1031A000880F911D9695879597F90895E1E0660F30
:1031B000771F881FBB1F621773078407BA0720F0A9
:1031C000621B730B840BBA0BEE1F88F7E095089512
:1031D000C1D088F09F5790F0B92F9927B751A0F030
:1031E000D1F0660F771F881F991F1AF0BA95C9F79B
:1031F00012C0B13081F0DFD0B1E00895DCC0672F9C
:10320000782F8827B85F39F0B93FCCF3869577954A
:103210006795B395D9F73EF4909580957095619533
:103220007F4F8F4F9F4F0895E89409C097FB3EF45E
:1032300090958095709561957F4F8F4F9F4F992303
:10324000A9F0F92F96E9BB279395F6958795779581
:103250006795B795F111F8CFFAF4BB0F11F460FF41
:103260001BC06F5F7F4F8F4F9F4F16C0882311F099
:1032700096E911C0772321F09EE8872F762F05C0AD
:10328000662371F096E8862F70E060E02AF09A9548
:10329000660F771F881FDAF7880F9695879597F93D
:1032A000089597F99F6780E870E060E008958823AB
:1032B00071F4772321F09850872B762F07C066236F
:1032C00011F499270DC09051862B70E060E02AF030
:1032D0009A95660F771F881FDAF7880F969587955E
:1032E00097F908959F3F31F0915020F48795779595
:1032F0006795B795880F911D9695879597F90895CD
:103300009FEF80EC089500240A94161617061806FD
:103310000906089500240A941216130614060506D9
:103320000895092E0394000C11F4882352F0BB0F6A
:1033300040F4BF2B11F460FF04C06F5F7F4F8F4FCD
:103340009F4F089557FD9058440F551F59F05F3F08
:1033500071F04795880F97FB991F61F09F3F79F0B7
:1033600087950895121613061406551FF2CF469539
:10337000F1DF08C0161617061806991FF1CF8695BB
:103380007105610508940895E5DFA0F0BEE7B9175F
:1033900088F4BB279F3860F41616B11D672F782F6D
:1033A0008827985FF7CF869577956795B11D939598
:1033B0009639C8F30895E894BB2766277727CB0191
:1033C00097F908950BD0ADCF9EDF28F0A3DF18F05A
:1033D000952309F066CF94CF1124EECFB3DFA0F38D
:1033E000959FD1F3950F50E0551F629FF001729F9A
:1033F000BB27F00DB11D639FAA27F00DB11DAA1FB9
:10340000649F6627B00DA11D661F829F2227B00D05
:10341000A11D621F739FB00DA11D621F839FA00D90
:10342000611D221F749F3327A00D611D231F849FE0
:10343000600D211D822F762F6A2F11249F57504037
:103440008AF0E1F088234AF0EE0FFF1FBB1F661FD2
:10345000771F881F91505040A9F79E3F510570F08B
:1034600020CFAACF5F3FECF3983EDCF386957795AB
:103470006795B795F795E7959F5FC1F7FE2B880F86
:10348000911D9695879597F90895AA1BBB1B51E14D
:1034900007C0AA1FBB1FA617B70710F0A61BB70BC4
:1034A000881F991F5A95A9F780959095BC01CD0169
:1034B0000895A1E21A2EAA1BBB1BFD010DC0AA1F75
:1034C000BB1FEE1FFF1FA217B307E407F50720F08D
:1034D000A21BB30BE40BF50B661F771F881F991F08
:1034E0001A9469F760957095809590959B01AC0151
:1034F000BD01CF010895EE0FFF1F0590F491E02D5F
:103500000994A29FB001B39FC001A39F700D811DBC
:103510001124911DB29F700D811D1124911D0895DC
:10352000F0DFA59F900DB49F900DA49F800D911D7D
:1035300011240895FB01DC014150504030F08D9181
:103540000190801919F40020B9F7881B990B089590
:10355000E199FECF9FBB8EBBE09A99278DB308956A
:10356000262FE199FECF9FBB8EBB2DBB0FB6F894E3
:0E357000E29AE19A0FBE01960895F894FFCFFB
:10357E000300010806040201414551006A00666617
:10358E0000334966004722004A00004B000048669F
:10359E00004D660065006661006662006667002287
:1035AE007300664566005011004600004C00005640
:1035BE0022007106264F11004166004266005366D6
:1035CE00006E00664E660044220064002243110025
:1035DE006300225A22007A0022526600720066515F
:1035EE0024006F002258660078006659220054119C
:0235FE000000CB
:00000001FF
